S018000072615F6D6375626F6F745F72613265312E73726563E7
S3150000000088560020890B0000950A0000850B000029
S31500000010850B0000850B0000850B0000850B00009A
S31500000020000000000000000000000000850B00003A
S31500000030850B000000000000850B0000850B00000A
S3150000004000000000000000009D0800000000000005
S31500000050000000000000000000000000000000009A
S31500000060000000000000000000000000000000008A
S31500000070000000000000000000000000000000007A
S31500000080000000000000000000000000000000006A
S31500000090000000000000000000000000000000005A
S315000000A0000000000000000000000000000000004A
S315000000B0000000000000000000000000000000003A
S315000000C010B90122014B1A707047C04690C07E409D
S315000000D01FB572B601A800F057FA05B000BDC046BC
S315000000E0FFFFFFFFFFFFFFFFFFFFFFFFFFFFFFFF1A
S315000000F0FFFFFFFFFFFFFFFFFFFFFFFFFFFFFFFF0A
S31500000100FFFFFFFFFFFFFFFFFFFFFFFFFFFFFFFFF9
S31500000110FFFFFFFFFFFFFFFFFFFFFFFFFFFFFFFFE9
S31500000400FFFFFFFFDFCEFFFFFCFF0F00FFFF0F0028
S31500000410FCFF0F00FFFF0F00FCFF0F00FFFF0F00A8
S31500000420FCFF0F20FFFF0F20FCFF7F40FFFF7F40F8
S31500000430FCFF0D40FFFF0D40FFFFFFFF10B544F22C
S315000004406054C2F20004237863B940F20003C0F29C
S3150000045000032BB140F61860C0F2000000E000BFB8
S315000004600123237010BDC04640F20003C0F2000312
S3150000047010B54BB144F2645140F61860C2F2000167
S31500000480C0F2000000E000BF10BDC046007800B515
S31500000490032806D8012300F00FFC07090502044AC9
S315000004A0137000BD034AFBE7034AF9E7034AF7E77F
S315000004B07E4500207C4500207D4500207F450020AC
S315000004C010B50249024800F065F910BDD80D0000CC
S315000004D0804D002037B56B46DD1D00232B70FFF7DE
S315000004E0EFFF1E2241F60001124800F0B5F900BBED
S315000004F041F600042B0040F6000221000D4800F0F2
S3150000050093F9B0B94FF6000340F60002E1180A4825
S3150000051000F0DCFB40F6000322000749054800F026
S31500000520AEF930B940F60003E41884235B029C421E
S31500000530E0D13EBD804D00208045002010B5FFF77C
S31500000540C7FD10BD10B5FFF7F9FF002010BDFFFF76
S3150000055070B5074D00242B782BB1064B186800F0B8
S315000005602FF810B92C70200070BD01246442FAE700
S31500000570B84D0020EC0D000081F30888BFF34F8FC3
S31500000580BFF36F8F0047FFFF10B572B6094B1B68AC
S31500000590592B01D1FFF79EFFFFF7DAFF41F6001353
S315000005A0054A5868196893600022044B9A80FFF741
S315000005B0E3FF10BD0000104000ED00E0000D00401C
S315000005C000231122036043689A56130021330DD08D
S315000005D01F2153090A401E3991400A00203304495D
S315000005E09B005A50BFF34F8FBFF36F8F00207047A9
S315000005F000E100E0304B70B51968304D0B00020089
S31500000600286A2F4C4001400F8340C3402D48D360D9
S31500000610834207D8A34205D02B48834202D02B48F9
S31500000620834245D1286A2A4D4001400F8140C1408E
S3150000063028481B18B3FBF4F0AB4235D8254BD060E5
S31500000640C918B1FBF4F140F2835306204B43B3FBC8
S31500000650F0F3136140F276334B43B3FBF0F353618F
S3150000066058234B43B3FBF0F393611B4B00244B43DE
S31500000670B3FBF0F3D361194B91604B43B3FBF0F33B
S315000006801362174B4B43B3FBF0F3536243F6C0734D
S31500000690144AD454144B1A78012A03D001221A7032
S315000006A000F092FB200070BDC307C7D50130C5E737
S315000006B040F2F614F6E7C046844E002000E0014002
S315000006C040420F00FF083D0080841E00C0C62D007A
S315000006D03F8AF7013F420F00B86A0500D066050061
S315000006E068ED220000C07E4090C07E4043F6B073A5
S315000006F010B50400134A1449D1528168062000F04F
S3150000070063FB102000F040FB0320A16800F05CFBB7
S3150000071063681A78AAB15B7C0C485BB21A00C032D7
S31500000720920011580A4C214011501F2101221940F4
S315000007308A405B0907499B005B1840F280115A50BA
S315000007401A6010BD00C07E4080AAFFFF0060004016
S31500000750FFFFFEFF00E100E070B50400FFF7C6FFF3
S31500000760E3683F2040F2D81209491F2B0BD9203BE2
S315000007705B081F338D58034085432B4320008B5065
S3150000078000F0F2FA70BD1F25013B2B408D58F3E7B0
S3150000079000C07E40F8B50B78040041605BB31123BE
S315000007A0CB561C4A98080325800080180A7CFF2136
S315000007B040F200371D40ED0092010A40A940AA40D0
S315000007C0C659154D8E433243C251144A99008C5076
S315000007D01A001348C03292001158294011501F21A7
S315000007E0012219408A405B090A499B005B1840F2C6
S315000007F080115A501A6023000022343320001A70E8
S31500000800FFF7F8FE28B92000FFF7A6FF08B9054B49
S315000008102360F8BD00E100E0FFFFFEFFFC4D002075
S31500000820006000404E45504F70B50024050034303E
S31500000830047080208002814202D30024200070BD13
S31500000840280000F0A9FA04000028F6D00828F5D000
S31500000850280000F0A9FAF1E7030010B50400002013
S3150000086034331870802316309B02994206D2C90A87
S3150000087040F600032000C90200F06EFA10BD70B504
S3150000088000248026050034300470B6022000B242EF
S3150000089002D2280000F090FA70BDFFFF1FB5EFF3FB
S315000008A00383103B5BB21A003348C03292001158E2
S315000008B0324C9B0021401150314A9C58230034335E
S315000008C01B78012B2DD1122220006169173300F00D
S315000008D053FAD8B9A16A4B1CA362E36A5A1CE262B6
S315000008E0226B013A22631AB9012302AA137024E08B
S315000008F0244A9B18244A180C9BB2508253814A788A
S31500000900224B5A638122224B5A751FBD082804D0F8
S31500000910200000F049FA0723E7E7236B002BF4D108
S31500000920E2E7022B16D111222000216A173300F0CC
S3150000093023FA0028ECD102AB1870200000F014FA5C
S3150000094062685368002BE0D0D26802A80392019235
S315000009509847DAE740F2F81310222000A16900F068
S315000009600BFA0028D4D1094BDB6A1B0701D50323F8
S31500000970BBE70223B9E7C04600600040FFFFFEFF69
S31500000980FC4D00200100F0BDFEC07E40FCC07E4054
S31500000990FFC07E40094B1A7882420DD0084A127871
S315000009A01AB908490A78D207FCD51A78D206FCD4B7
S315000009B018701A78D206FCD47047C046A0E00140F1
S315000009C036E001403CE00140064B0749DA1DD27F84
S315000009D01B6A920052585B015B0FDA401300034A10
S315000009E01360704700E0014048450020844E002017
S315000009F040F2FE3370B51B4A1B4D0024EA5243F603
S31500000A00C8731A4E1A4AF4541A4B1A601A4ADC6012
S31500000A105A6048F200021C619A60FFF7D5FF40F267
S31500000A20804301222000EA54FFF7B4FF134B144A17
S31500000A301C701378DB07FCD501240022114B1C70B7
S31500000A40114B1C70114BDA7740F200132B62FFF743
S31500000A50BBFF40F2FE330E4AEA5243F6C873F45423
S31500000A6070BDC04603A5FFFF00E0014000C07E4008
S31500000A70006CDC024845002000127A0036E0014096
S31500000A803CE0014031E00140C4FF7E4007E0014008
S31500000A9000A5FFFF40F2401370B500240126094A65
S31500000AA0D55AADB22B00E340E0B2334204D0064B38
S31500000AB0A200D35803B198470134102CF2D1034B4E
S31500000AC05D8670BD00600040BC4D0020FE600040A9
S31500000AD000230649064A9A1810781A00C032920076
S31500000AE001335050202BF5D17047C04600600040BE
S31500000AF0F00D000030B5EFF31082012383F3108868
S31500000B0098400B49435A1BB10B5A013B9BB20B52FF
S31500000B100B5A53B940F2FE31064C074B655A185A28
S31500000B20064B2B4383439BB2635282F3108830BD3E
S31500000B307C4E002000E00140100E000000A5FFFFE3
S31500000B4070B5EFF31081012383F3108898400A4AA9
S31500000B50835A53B940F2FE34084D094E2B5B865B2F
S31500000B6033434AF2005633432B53135A01339BB295
S31500000B70135281F3108870BD7C4E002000E00140C6
S31500000B80100E000000BE704710B500F003F8FFF726
S31500000B90D9FCFEE773B5364A364B00209A60FFF75C
S31500000BA08FFAFFF725FF6B460024DE1D3470012007
S31500000BB03378FFF7C5FFEFF31081012585F3108821
S31500000BC02D4B2E489A6802409A609A6881F31088E5
S31500000BD02B490A68D207D20F32700A68D207D20FA1
S31500000BE032700A68D207D20F3270EFF3108185F3A4
S31500000BF0108880229868520502439A609B6881F3A8
S31500000C0010882800FFF776FF2800FFF759FA41F20F
S31500000C1000011C4B1C4A9C801A801C4A1C489A6086
S31500000C201C4ADA601C4A51841C4A9D802100121A13
S31500000C3000F055F81A481B4A1B49121A00F046F8EC
S31500000C401A4D1B4BED1AAD10AC420ADBFFF7BCFE8A
S31500000C500220FFF735FAFFF73BFF002000F02AF8E5
S31500000C6073BD134AA3009B181B6898470134EBE732
S31500000C700000000000ED00E0FC6F0440FFFFFFEF06
S31500000C8000080440000D004000A5FFFF884E00202C
S31500000C906045002088560020FE600040884E0020F7
S31500000CA000400020484500201C0E0000444500205E
S31500000CB0404500207047FFFF02B4714649084900CD
S31500000CC0095C49008E4402BC7047C046002310B53B
S31500000CD09A4200D110BDCC5CC4540133F8E703003E
S31500000CE08218934200D1704719700133F9E7FFFF6C
S31500000CF04275696C7420776974682052656E6573F5
S31500000D00617320416476616E63656420466C657824
S31500000D1069626C6520536F667477617265205061F5
S31500000D20636B6167652076657273696F6E20332E1B
S31500000D30332E3000332E332E300000000000030324
S31500000D40F8B5C046F8BC08BC9E467047F8B5C04624
S31500000D50F8BC08BC9E46704701B40248844601BCF4
S31500000D60604700BFBD42002001B40248844601BC72
S31500000D70604700BFB940002001B40248844601BC68
S31500000D80604700BF4541002001B40248844601BCCB
S31500000D90604700BF9140002001B40248844601BC70
S31500000DA0604700BF7942002001B40248844601BC76
S31500000DB0604700BF0941002001B40248844601BCD7
S31500000DC0604700BFD143002001B40248844601BCFD
S31500000DD0604700BF81400020000000008D04000035
S31500000DE0000000000000000003020000804D00200B
S31500000DF000000200000000000000000000000000EB
S31500000E0000000000000000000000000000000000DC
S31100000E10010002000800100000000000B5
S31500000E1C431E59180A4B70B51C000126FF34657920
S31500000E2CD2B2B54365711D00060CFE3580B26E82DA
S31500000E3CFC336881080C89B258626983627570BD8F
S31500000E4C00C07E4013B5104901900B6B5B0612D5A2
S31500000E5C7F240E4B5A7D22405A7500225A750190FA
S31500000E6C0B6B5B06D80F002B08DA019B2BB1019B91
S31500000E7C013B0193F4E7019B0BB9142016BD019BB2
S31500000E8C013B0193E1E7C046FCC07E40FFC07E40BB
S31500000E9C4143032903D9890801390029FCD170473C
S31500000EAC40F28013A521064AD150C243054BD2B25B
S31500000EBC58705A7058705B78834200D1C0467047A0
S31500000ECC00C07E40FFC07E40F7B544F600330700F5
S31500000EDC43F6B0760E4C0820A55B0193FFF7E0FFB6
S31500000EEC0620B968FFF7D4FF0A4BADB2A353A35B38
S31500000EFC98B22BB9012D02D143F6C873E554FEBD49
S31500000F0C019B1BB1019B013B0193F0E71420F6E713
S31500000F1C00C07E4000AAFFFF03000022343310B548
S31500000F2C1A7043F6B073094A0400D35A0BB900F091
S31500000F3C07FA0121064B20009A6A0A439A629A6ABA
S31500000F4C8A439A62FFF7C0FF10BDC04600C07E40C0
S31500000F5CFCC07E40F8B50500080016001F00FFF720
S31500000F6C71FF0400142804D12800FFF7D5FF2000D8
S31500000F7CF8BD40F2F0133400044AD3581C401E420C
S31500000F8CF5D02800FFF7C8FF3C00F0E700C07E4014
S31500000F9C002310B5934200D110BDCC5CC454013370
S31500000FACF8E743F6C873002210B504001048C25483
S31500000FBC63681A787AB111221F219A5653090A408E
S31500000FCC1E3991400A0020330A499B005A50BFF340
S31500000FDC4F8FBFF36F8F43F6B073074AC25202208E
S31500000FECFFF75EFF0320A168FFF752FF10BDC04656
S31500000FFC00C07E4000E100E001AAFFFF37B5114AB0
S3150000100C114901900B6B1B0613D540F2DC137F259F
S3150000101CD4582C40D4500024D45001900B6B1B0692
S3150000102CD80F002B08DA019B2BB1019B013B0193D6
S3150000103CF4E7019B0BB914203EBD019B013B0193C8
S3150000104CE0E7C04600C07E40FCC07E4070B505009F
S3150000105C406AFFF7D3FF0400142804D12800FFF7D9
S3150000106C5BFF200070BD40F2F013064AD258DF3BFE
S3150000107C1400FF3B1C401A42F3D02800FFF74CFF2C
S3150000108C1824EEE700C07E40F8B514000F000500EA
S3150000109C1E00FFF786FF210083223800FFF7B8FEFB
S315000010AC0334AB69A1085943102240F2F813280007
S315000010BCFFF750FF38B9044B2800DB6A1B07DB0F20
S315000010CC3370FFF701FFF8BDFCC07E40F8B5040095
S315000010DC16000F001D00FFF764FF01210A4A3800B5
S315000010EC53798B432900537171438422FFF790FE89
S315000010FCE1691923112220007143FFF72BFF10B968
S3150000110C2000FFF7E1FEF8BDFFC07E40F0B585B0CC
S3150000111C060002910392FFF744FF8323029C01937E
S3150000112C01221E4F1E497B7913437B71039B03BB24
S3150000113C4FF6FF734B63CB6340F2DC13194A0199EC
S3150000114C3000D150019B01330193FFF77FFF012241
S3150000115C7B79050093437B7118B9019B0434872B6B
S3150000116CDED13000FFF7B0FE05B90500280005B04A
S3150000117CF0BD62782378120213434B63029BE31A89
S3150000118C0C2B07D1029B039A987BDB7B1B02034338
S3150000119C1343D0E7E278A3781202F9E7FFC07E404A
S315000011ACFCC07E4000C07E4013B50C4C0A0C2300DC
S315000011BCFE3389B25A8259810422010001A8FFF735
S315000011CCE7FE6B469A882300FC335A636A46D2883C
S315000011DCFF34DA638123637513BDC04600C07E40BD
S315000011ECF8B51D0004000E001700FFF7DAFE01210A
S315000011FCAD0825630025134AE7625379A6628B4333
S3150000120C5371236BBBB10DB12800F8BDE16AA06A1E
S3150000121CFFF7CAFFA36A12220433A362E36A200013
S3150000122C0433E362236B2169013B23631823FFF725
S3150000123C91FE0500E5E7002DE6D12000FFF744FE00
S3150000124CE2E7C046FFC07E4070B540F2D01340F2D4
S3150000125CC8160E4C0E4D82B9A259E358D20ADB0AB7
S3150000126CC00AD202C90ADB02024319436A63E96364
S3150000127C40F2DC138222E25070BDA259E3586A6335
S3150000128C044A13401843E863F2E7C04600C07E40A8
S3150000129CFCC07E40FF7FFFFFF8B5170005000C0071
S315000012ACFFF77FFE9FB140F2D812C0200321124EE9
S315000012BC2140B358002783431C0089010C43B450CA
S315000012CC2800FFF701FE07B907003800F8BD012614
S315000012DC344063425C41E003084C390063793200C8
S315000012EC33436371FFF7B0FF2800FFF7AFFE637956
S315000012FC0700B3436371E3E700C07E40FFC07E4046
S3150000130CF7B501270E0004000C4D0192FFF749FEBC
S3150000131C6B7930003B436B7100220199FFF794FF08
S3150000132C2000FFF793FE06006B792000BB436B7120
S3150000133CFFF7CAFD06B906003000FEBDFFC07E40B1
S3150000134C01B40248844601BC604700BFED060000AC
S30D0000135C690400003D040000D5
S31501010018FFFFFFFFFFFFFFFFFFFFFFFFFFFFFFFFE0
S31101010028FFFFFFFFFFFFFFFFFFFFFFFFD0
S70500000B8966
