S123000088560020850B0000910A0000810B0000810B0000810B0000810B0000810B0000F7
S1230020000000000000000000000000810B0000810B000000000000810B0000810B00008C
S12300400000000000000000990800000000000000000000000000000000000000000000FB
S123006000000000000000000000000000000000000000000000000000000000000000007C
S123008000000000000000000000000000000000000000000000000000000000000000005C
S12300A000000000000000000000000000000000000000000000000000000000000000003C
S12300C010B90122014B1A707047C04690C07E401FB572B601A800F055FA05B000BDC04633
S12300E0FFFFFFFFFFFFFFFFFFFFFFFFFFFFFFFFFFFFFFFFFFFFFFFFFFFFFFFFFFFFFFFF1C
S1230100FFFFFFFFFFFFFFFFFFFFFFFFFFFFFFFFFFFFFFFFFFFFFFFFFFFFFFFFFFFFFFFFFB
S1230120FFFFFFFFFFFFFFFFFFFFFFFFFFFFFFFFFFFFFFFFFFFFFFFFFFFFFFFFFFFFFFFFDB
S1230140FFFFFFFFFFFFFFFFFFFFFFFFFFFFFFFFFFFFFFFFFFFFFFFFFFFFFFFFFFFFFFFFBB
S1230160FFFFFFFFFFFFFFFFFFFFFFFFFFFFFFFFFFFFFFFFFFFFFFFFFFFFFFFFFFFFFFFF9B
S1230180FFFFFFFFFFFFFFFFFFFFFFFFFFFFFFFFFFFFFFFFFFFFFFFFFFFFFFFFFFFFFFFF7B
S12301A0FFFFFFFFFFFFFFFFFFFFFFFFFFFFFFFFFFFFFFFFFFFFFFFFFFFFFFFFFFFFFFFF5B
S12301C0FFFFFFFFFFFFFFFFFFFFFFFFFFFFFFFFFFFFFFFFFFFFFFFFFFFFFFFFFFFFFFFF3B
S12301E0FFFFFFFFFFFFFFFFFFFFFFFFFFFFFFFFFFFFFFFFFFFFFFFFFFFFFFFFFFFFFFFF1B
S1230200FFFFFFFFFFFFFFFFFFFFFFFFFFFFFFFFFFFFFFFFFFFFFFFFFFFFFFFFFFFFFFFFFA
S1230220FFFFFFFFFFFFFFFFFFFFFFFFFFFFFFFFFFFFFFFFFFFFFFFFFFFFFFFFFFFFFFFFDA
S1230240FFFFFFFFFFFFFFFFFFFFFFFFFFFFFFFFFFFFFFFFFFFFFFFFFFFFFFFFFFFFFFFFBA
S1230260FFFFFFFFFFFFFFFFFFFFFFFFFFFFFFFFFFFFFFFFFFFFFFFFFFFFFFFFFFFFFFFF9A
S1230280FFFFFFFFFFFFFFFFFFFFFFFFFFFFFFFFFFFFFFFFFFFFFFFFFFFFFFFFFFFFFFFF7A
S12302A0FFFFFFFFFFFFFFFFFFFFFFFFFFFFFFFFFFFFFFFFFFFFFFFFFFFFFFFFFFFFFFFF5A
S12302C0FFFFFFFFFFFFFFFFFFFFFFFFFFFFFFFFFFFFFFFFFFFFFFFFFFFFFFFFFFFFFFFF3A
S12302E0FFFFFFFFFFFFFFFFFFFFFFFFFFFFFFFFFFFFFFFFFFFFFFFFFFFFFFFFFFFFFFFF1A
S1230300FFFFFFFFFFFFFFFFFFFFFFFFFFFFFFFFFFFFFFFFFFFFFFFFFFFFFFFFFFFFFFFFF9
S1230320FFFFFFFFFFFFFFFFFFFFFFFFFFFFFFFFFFFFFFFFFFFFFFFFFFFFFFFFFFFFFFFFD9
S1230340FFFFFFFFFFFFFFFFFFFFFFFFFFFFFFFFFFFFFFFFFFFFFFFFFFFFFFFFFFFFFFFFB9
S1230360FFFFFFFFFFFFFFFFFFFFFFFFFFFFFFFFFFFFFFFFFFFFFFFFFFFFFFFFFFFFFFFF99
S1230380FFFFFFFFFFFFFFFFFFFFFFFFFFFFFFFFFFFFFFFFFFFFFFFFFFFFFFFFFFFFFFFF79
S12303A0FFFFFFFFFFFFFFFFFFFFFFFFFFFFFFFFFFFFFFFFFFFFFFFFFFFFFFFFFFFFFFFF59
S12303C0FFFFFFFFFFFFFFFFFFFFFFFFFFFFFFFFFFFFFFFFFFFFFFFFFFFFFFFFFFFFFFFF39
S12303E0FFFFFFFFFFFFFFFFFFFFFFFFFFFFFFFFFFFFFFFFFFFFFFFFFFFFFFFFFFFFFFFF19
S1230400FFFFFFFFDFCEFFFFFCFF0F00FFFF0F00FCFF0F00FFFF0F00FCFF0F00FFFF0F00EC
S1230420FCFF0F20FFFF0F20FCFF7F40FFFF7F40FCFF0D40FFFF0D40FFFFFFFF10B544F260
S12304406054C2F20004237863B940F20003C0F200032BB140F61860C0F2000000E000BFB0
S12304600123237010BDC04640F20003C0F2000310B54BB144F2645140F61860C2F20001F5
S1230480C0F2000000E000BF10BDC046007800B5032806D8012300F00DFC07090502044A7C
S12304A0137000BD034AFBE7034AF9E7034AF7E77E4500207C4500207D4500207F450020E7
S12304C010B50249024800F063F910BDD80D0000804D002073B56B46DE1D00233370FFF743
S12304E0EFFF1F2241F60001114800F0B3F9F0B941F60004330040F6000221000C4800F0E8
S123050091F9A0B988256D0240F600022900094800F0DAFB40F6000322000649044800F07B
S1230520ACF920B940F60003E418AC42E2D176BD804D00208045002010B5FFF7C9FD10BD10
S123054010B5FFF7F9FF002010BDFFFF70B5074D00242B782BB1064B186800F02FF810B92C
S12305602C70200070BD01246442FAE7B84D0020EC0D000081F30888BFF34F8FBFF36F8F80
S12305800047FFFF10B572B6094B1B68592B01D1FFF7A0FFFFF7DAFF41F60013054A58683B
S12305A0196893600022044B9A80FFF7E3FF10BD0000104000ED00E0000D004000231122D3
S12305C0036043689A56130021330DD01F2153090A401E3991400A00203304499B005A50D8
S12305E0BFF34F8FBFF36F8F0020704700E100E0304B70B51968304D0B000200286A2F4C67
S12306004001400F8340C3402D48D360834207D8A34205D02B48834202D02B48834245D122
S1230620286A2A4D4001400F8140C14028481B18B3FBF4F0AB4235D8254BD060C918B1FBFF
S1230640F4F140F2835306204B43B3FBF0F3136140F276334B43B3FBF0F3536158234B4339
S1230660B3FBF0F393611B4B00244B43B3FBF0F3D361194B91604B43B3FBF0F31362174BC9
S12306804B43B3FBF0F3536243F6C073144AD454144B1A78012A03D001221A7000F094FB75
S12306A0200070BDC307C7D50130C5E740F2F614F6E7C046844E002000E0014040420F00E3
S12306C0FF083D0080841E00C0C62D003F8AF7013F420F00B86A0500D066050068ED2200D3
S12306E000C07E4090C07E4043F6B07310B50400134A1449D1528168062000F065FB1020D9
S123070000F042FB0320A16800F05EFB63681A78AAB15B7C0C485BB21A00C032920011583C
S12307200A4C214011501F21012219408A405B0907499B005B1840F280115A501A6010BDA1
S123074000C07E4080AAFFFF00600040FFFFFEFF00E100E070B50400FFF7C6FFE3683F2005
S123076040F2D81209491F2B0BD9203B5B081F338D58034085432B4320008B5000F0F4FA92
S123078070BD1F25013B2B408D58F3E700C07E40F8B50B78040041605BB31123CB561C4A62
S12307A098080325800080180A7CFF2140F200371D40ED0092010A40A940AA40C659154DCB
S12307C08E433243C251144A99008C501A001348C03292001158294011501F210122194001
S12307E08A405B090A499B005B1840F280115A501A6023000022343320001A70FFF7F8FE3D
S123080028B92000FFF7A6FF08B9054B2360F8BD00E100E0FFFFFEFFFC4D0020006000402A
S12308204E45504F70B5002405003430047080208002814202D30024200070BD280000F019
S1230840ABFA04000028F6D00828F5D0280000F0ABFAF1E7030010B5040000203433187098
S1230860802316309B02994206D2C90A40F600032000C90200F070FA10BD70B5002480262E
S1230880050034300470B6022000B24202D2280000F092FA70BDFFFF1FB5EFF30383103B81
S12308A05BB21A003348C03292001158324C9B0021401150314A9C58230034331B78012B12
S12308C02DD1122220006169173300F055FAD8B9A16A4B1CA362E36A5A1CE262226B013A98
S12308E022631AB9012302AA137024E0244A9B18244A180C9BB2508253814A78224B5A63B3
S12309008122224B5A751FBD082804D0200000F04BFA0723E7E7236B002BF4D1E2E7022B53
S123092016D111222000216A173300F025FA0028ECD102AB1870200000F016FA62685368D6
S1230940002BE0D0D26802A8039201929847DAE740F2F81310222000A16900F00DFA002854
S1230960D4D1094BDB6A1B0701D50323BBE70223B9E7C04600600040FFFFFEFFFC4D0020A6
S12309800100F0BDFEC07E40FCC07E40FFC07E40094B1A7882420DD0084A12781AB90849AB
S12309A00A78D207FCD51A78D206FCD418701A78D206FCD47047C046A0E0014036E0014036
S12309C03CE00140064B0749DA1DD27F1B6A920052585B015B0FDA401300034A13607047A2
S12309E000E0014048450020844E002040F2FE3370B51B4A1B4D0024EA5243F6C8731A4EA2
S1230A001A4AF4541A4B1A601A4ADC605A6048F200021C619A60FFF7D5FF40F28043012258
S1230A202000EA54FFF7B4FF134B144A1C701378DB07FCD501240022114B1C70114B1C700E
S1230A40114BDA7740F200132B62FFF7BBFF40F2FE330E4AEA5243F6C873F45470BDC0467D
S1230A6003A5FFFF00E0014000C07E40006CDC024845002000127A0036E001403CE00140F6
S1230A8031E00140C4FF7E4007E0014000A5FFFF40F2401370B500240126094AD55AADB2DE
S1230AA02B00E340E0B2334204D0064BA200D35803B198470134102CF2D1034B5D8670BDC6
S1230AC000600040BC4D0020FE60004000230649064A9A1810781A00C0329200013350503D
S1230AE0202BF5D17047C04600600040F00D000030B5EFF31082012383F3108898400B49D0
S1230B00435A1BB10B5A013B9BB20B520B5A53B940F2FE31064C074B655A185A064B2B43B7
S1230B2083439BB2635282F3108830BD7C4E002000E00140100E000000A5FFFF70B5EFF31C
S1230B401081012383F3108898400A4A835A53B940F2FE34084D094E2B5B865B33434AF290
S1230B60005633432B53135A01339BB2135281F3108870BD7C4E002000E00140100E000072
S1230B8000BE704710B500F003F8FFF7D9FCFEE773B5364A364B00209A60FFF791FAFFF7C2
S1230BA025FF6B460024DE1D347001203378FFF7C5FFEFF31081012585F310882D4B2E487C
S1230BC09A6802409A609A6881F310882B490A68D207D20F32700A68D207D20F32700A6843
S1230BE0D207D20F3270EFF3108185F3108880229868520502439A609B6881F310882800A3
S1230C00FFF776FF2800FFF75BFA41F200011C4B1C4A9C801A801C4A1C489A601C4ADA60D7
S1230C201C4A51841C4A9D802100121A00F055F81A481B4A1B49121A00F046F81A4D1B4B16
S1230C40ED1AAD10AC420ADBFFF7BCFE0220FFF737FAFFF73BFF002000F02AF873BD134A11
S1230C60A3009B181B6898470134EBE70000000000ED00E0FC6F0440FFFFFFEF00080440FD
S1230C80000D004000A5FFFF884E00206045002088560020FE600040884E002000400020B3
S1230CA0484500201C0E000044450020404500207047FFFF02B4714649084900095C4900A1
S1230CC08E4402BC7047C046002310B59A4200D110BDCC5CC4540133F8E70300821893429C
S1230CE000D1704719700133F9E7FFFF4275696C7420776974682052656E6573617320419F
S1230D006476616E63656420466C657869626C6520536F667477617265205061636B6167DD
S1230D20652076657273696F6E20332E332E3000332E332E3000000000000303F8B5C04667
S1230D40F8BC08BC9E467047F8B5C046F8BC08BC9E467047FFFFFFFF01B40248844601BC34
S1230D60604700BFBD42002001B40248844601BC604700BFB940002001B40248844601BC5F
S1230D80604700BF4541002001B40248844601BC604700BF9140002001B40248844601BCE0
S1230DA0604700BF7942002001B40248844601BC604700BF0941002001B40248844601BC12
S1230DC0604700BFD143002001B40248844601BC604700BF81400020000000008D04000017
S1230DE0000000000000000003020000804D002000000200000000000000000000000000FB
S1230E0000000000000000000000000000000000010002000800100000000000431E5918E1
S1230E200A4B70B51C000126FF346579D2B2B54365711D00060CFE3580B26E82FC336881F2
S1230E40080C89B258626983627570BD00C07E4013B5104901900B6B5B0612D57F240E4BAB
S1230E605A7D22405A7500225A7501900B6B5B06D80F002B08DA019B2BB1019B013B019335
S1230E80F4E7019B0BB9142016BD019B013B0193E1E7C046FCC07E40FFC07E40414303292B
S1230EA003D9890801390029FCD1704740F28013A521064AD150C243054BD2B258705A7073
S1230EC058705B78834200D1C046704700C07E40FFC07E40F7B544F60033070043F6B076A6
S1230EE00E4C0820A55B0193FFF7E0FF0620B968FFF7D4FF0A4BADB2A353A35B98B22BB91D
S1230F00012D02D143F6C873E554FEBD019B1BB1019B013B0193F0E71420F6E700C07E402A
S1230F2000AAFFFF03000022343310B51A7043F6B073094A0400D35A0BB900F007FA012173
S1230F40064B20009A6A0A439A629A6A8A439A62FFF7C0FF10BDC04600C07E40FCC07E4082
S1230F60F8B50500080016001F00FFF771FF0400142804D12800FFF7D5FF2000F8BD40F20A
S1230F80F0133400044AD3581C401E42F5D02800FFF7C8FF3C00F0E700C07E40002310B5BE
S1230FA0934200D110BDCC5CC4540133F8E743F6C873002210B504001048C25463681A783D
S1230FC07AB111221F219A5653090A401E3991400A0020330A499B005A50BFF34F8FBFF37A
S1230FE06F8F43F6B073074AC2520220FFF75EFF0320A168FFF752FF10BDC04600C07E40F5
S123100000E100E001AAFFFF37B5114A114901900B6B1B0613D540F2DC137F25D4582C4054
S1231020D4500024D45001900B6B1B06D80F002B08DA019B2BB1019B013B0193F4E7019BC9
S12310400BB914203EBD019B013B0193E0E7C04600C07E40FCC07E4070B50500406AFFF79E
S1231060D3FF0400142804D12800FFF75BFF200070BD40F2F013064AD258DF3B1400FF3BA9
S12310801C401A42F3D02800FFF74CFF1824EEE700C07E40F8B514000F0005001E00FFF7F0
S12310A086FF210083223800FFF7B8FE0334AB69A1085943102240F2F8132800FFF750FF91
S12310C038B9044B2800DB6A1B07DB0F3370FFF701FFF8BDFCC07E40F8B5040016000F00B5
S12310E01D00FFF764FF01210A4A380053798B432900537171438422FFF790FEE1691923DD
S1231100112220007143FFF72BFF10B92000FFF7E1FEF8BDFFC07E40F0B585B00600029141
S12311200392FFF744FF8323029C019301221E4F1E497B7913437B71039B03BB4FF6FF73C5
S12311404B63CB6340F2DC13194A01993000D150019B01330193FFF77FFF01227B7905004C
S123116093437B7118B9019B0434872BDED13000FFF7B0FE05B90500280005B0F0BD6278A8
S12311802378120213434B63029BE31A0C2B07D1029B039A987BDB7B1B0203431343D0E7DC
S12311A0E278A3781202F9E7FFC07E40FCC07E4000C07E4013B50C4C0A0C2300FE3389B288
S12311C05A8259810422010001A8FFF7E7FE6B469A882300FC335A636A46D288FF34DA634E
S12311E08123637513BDC04600C07E40F8B51D0004000E001700FFF7DAFE0121AD082563FB
S12312000025134AE7625379A6628B435371236BBBB10DB12800F8BDE16AA06AFFF7CAFFF0
S1231220A36A12220433A362E36A20000433E362236B2169013B23631823FFF791FE0500A5
S1231240E5E7002DE6D12000FFF744FEE2E7C046FFC07E4070B540F2D01340F2C8160E4C92
S12312600E4D82B9A259E358D20ADB0AC00AD202C90ADB02024319436A63E96340F2DC13B4
S12312808222E25070BDA259E3586A63044A13401843E863F2E7C04600C07E40FCC07E4026
S12312A0FF7FFFFFF8B5170005000C00FFF77FFE9FB140F2D812C0200321124E2140B3582A
S12312C0002783431C0089010C43B4502800FFF701FE07B907003800F8BD01263440634213
S12312E05C41E003084C39006379320033436371FFF7B0FF2800FFF7AFFE63790700B3433C
S12313006371E3E700C07E40FFC07E40F7B501270E0004000C4D0192FFF749FE6B7930000D
S12313203B436B7100220199FFF794FF2000FFF793FE06006B792000BB436B71FFF7CAFDC2
S123134006B906003000FEBDFFC07E4001B40248844601BC604700BFE90600006904000014
S12313603D040000FFFFFFFFFFFFFFFFFFFFFFFFFFFFFFFFFFFFFFFFFFFFFFFFFFFFFFFF44
S1231380FFFFFFFFFFFFFFFFFFFFFFFFFFFFFFFFFFFFFFFFFFFFFFFFFFFFFFFFFFFFFFFF69
S12313A0FFFFFFFFFFFFFFFFFFFFFFFFFFFFFFFFFFFFFFFFFFFFFFFFFFFFFFFFFFFFFFFF49
S12313C0FFFFFFFFFFFFFFFFFFFFFFFFFFFFFFFFFFFFFFFFFFFFFFFFFFFFFFFFFFFFFFFF29
S12313E0FFFFFFFFFFFFFFFFFFFFFFFFFFFFFFFFFFFFFFFFFFFFFFFFFFFFFFFFFFFFFFFF09
S1231900207B0020BDD6000015D40000CBD60000CBD60000CBD60000CBD60000CBD6000067
S1231920000000000000000000000000CBD60000CBD6000000000000CBD60000CBD600001F
S1231940F595000011950000B99600000D97000077D0000007B90000B99600000D97000066
S123196007B900001195000099C3000085CA0000F595000021A400000000000089A40000D6
S123198027AB00000000000000000000000000000000000000000000000000000000000071
S12319A0000000000000000000000000000000000000000000000000000000000000000023
S12319C0FFFFFFFFFFFFFFFFFFFFFFFFFFFFFFFFFFFFFFFFFFFFFFFFFFFFFFFFFFFFFFFF23
S12319E0FFFFFFFFFFFFFFFFFFFFFFFFFFFFFFFFFFFFFFFFFFFFFFFFFFFFFFFFFFFFFFFF03
S1231A00FFFFFFFFFFFFFFFFFFFFFFFFFFFFFFFFFFFFFFFFFFFFFFFFFFFFFFFFFFFFFFFFE2
S1231E0010B544F62034C2F20004237863B940F20003C0F200032BB14EF6C870C0F2000008
S1231E2000E000BF0123237010BDC04640F20003C0F2000310B54BB144F624314EF6C870BF
S1231E40C2F20001C0F2000000E000BF10BDC04690B585B000AF78600A00BB1C1A800A24FB
S1231E603B1900221A804EF6D003C0F200037A68190010000BF0C4FF0300FB60FB680333C2
S1231E80FB603B1900221A802CE0FB681B785BB22C2B2DD0FB681B785BB22E2B09D0FB68D8
S1231EA01B785BB2392B1BDCFB681B785BB22F2B16DDFB685A1CFA600A243A191288002065
S1231EC0185646F26023C2F2000327219B185B18021C1A703B191A883B1901321A8001E010
S1231EE000238BE00A23FB181B88102BCDD900E0C0460A203B181A8846F26023C2F2000315
S1231F0027219B185B1800221A70FB680133FB603B1800221A8028E0FB681B785BB22C2B40
S1231F2029D0FB681B785BB2392B1CDCFB681B785BB22F2B17DDFB685A1CFA6000215956F1
S1231F400A243B191A88C8B246F26023C2F200034B219B185B18021C1A703B191A883B19E9
S1231F6001321A8001E0002348E00A23FB181B88052BD1D900E0C0460A203B181A8846F26A
S1231F806023C2F200034B219B185B1800221A70FB680133FB603B1800221A8028E0FB6859
S1231FA01B785BB22C2B0DD10A23FB181A8846F26023C2F2000337219B185B1800221A70CA
S1231FC001231BE0FB685A1CFA600A243A1912880020185646F26023C2F2000337219B1885
S1231FE05B18021C1A703B191A883B1901321A800A23FB181B88132BD1D900231800BD46A2
S123200005B090BDF0B58DB000AFF8600A000A203B181A800E2108268B19DB193A181288CF
S12320201A808B19DA1944F64033C2F20003F868190000F0B6FC0300002B01D100F03DFCC3
S123204016239B19DE1944F64033C2F20003180000F040FC03003380162308269B19DB192B
S12320601B88213B2A2B01D900F029FC9A00D84BD3181B689F4644F64033C2F20003BB6189
S1232080BB691B7A112B68D146F26023C2F200035A7A9C7A24022243DC7A240422431C7BAD
S12320A02406224310005A7B9C7B24022243DC7B240422431B7C1B06134319003862796286
S12320C0262308229B18DB1902221A8026E0386A796A642200230BF031FCD2B226250826CB
S12320E0AB19DB191C88100006F0BAFD03001A0044F64043C2F200031A55386A796A6422B8
S123210000230BF01BFC02000B003A627B62AB19DB191A88AB19DB1901321A8026230822AE
S12321209B18DB191B88052BD1D944F64043C2F2000300221A7044F64043C2F200030022C1
S12321405A7044F64043C2F200034B220621180000F09CFC012300F0B6FBBB691B7A142B4C
S123216000D0AEE346F26023C2F2000309331A7800210A401A705A7800210A405A709A78AC
S123218000210A409A70DA7800210A40DA701A7900210A401A715A7900210A405A719A791A
S12321A000210A409A71DA7900210A40DA7144F64033C2F20003BB61262308229B18DB1902
S12321C000221A8094E046F26023C2F200035A7A9C7A24022243DC7A240422431C7B240640
S12321E0224310005A7B9C7B24022243DC7B240422431B7C1B0613431900642200230BF040
S1232200C1FB02000B0014001D00262608217318DB191B880833BA69D3189B7B333BDBB2CF
S1232220180006F053FD03003B6000237B60386879680019694146F26023C2F200030933AE
S1232240FF22024015001A7800242240141C2A1C22431A70020AFF24224015005A780024E9
S12322602240141C2A1C22435A70020CFF24224015009A7800242240141C2A1C22439A702E
S1232280050EDA7800242240141C2A1C2243DA70FF220A4015001A7900242240141C2A1C1B
S12322A022431A710A0AFF24224015005A7900242240141C2A1C22435A710A0CFF242240E2
S12322C015009A7900242240141C2A1C22439A71080EDA7900210A40111C021C0A43DA71AF
S12322E008217318DB191A887318DB1901321A80262308229B18DB191B88032B00D862E738
S1232300012000F067FE46F2A573C2F2000301221A700123D7E246F26023C2F200035A786E
S12323209C7824022243DC78240422431C792406224310005A799C7924022243DC792404F5
S123234022431B7A1B061343190038627962262308229B18DB1900221A8026E0386A796A19
S1232360642200230BF0EAFAD2B226250826AB19DB191C88100006F073FC03001A0044F6AC
S12323804043C2F200031A55386A796A642200230BF0D4FA02000B003A627B62AB19DB195B
S12323A01A88AB19DB1901321A80262308229B18DB191B88052BD1D944F64043C2F20003E7
S12323C021220621180000F061FB01237BE2C046D4E8000046F26023C2F2000301331A78B0
S12323E000210A401A705A7800210A405A709A7800210A409A70DA7800210A40DA701A79BC
S123240000210A401A715A7900210A405A719A7900210A409A71DA7900210A40DA7144F6ED
S12324204033C2F20003BB61262308229B18DB1900221A8096E046F26023C2F200035A78C2
S12324409E7836023243DE78360432431E793606324310005A799E7936023243DE79360430
S123246032431B7A1B0613431900642200230BF089FA02000B003A607B60262108200B1883
S1232480DB191B880722D31ABA69D3189B7B333BDBB2180006F01AFC03001C000025386864
S12324A079680019694146F26023C2F200030133FF22024094461A7800263240161C62468D
S12324C032431A70020AFF26324094465A7800263240161C624632435A70020CFF26324054
S12324E094469A7800263240161C624632439A70020E9446DA7800263240161C62463243D8
S1232500DA70FF220A4094461A7900263240161C624632431A710A0AFF26324094465A79CB
S123252000263240161C624632435A710A0CFF26324094469A7900263240161C6246324364
S12325409A71080EDA7900210A40111C021C0A43DA71262108200B18DB191A880B18DB1976
S123256001321A80262308229B18DB191B88052B00D860E7012000F02DFD46F2A573C2F23F
S1232580000301221A7001239DE144F64033C2F20003BB61262308229B18DB1900221A808F
S12325A01FE0262008254319DB191B880233BA69D3189B7B333BD9B204004319DB191A886A
S12325C048B246F26023C2F2000337219B185B18021C1A706319DB191A886319DB190132B0
S12325E01A80262308229B18DB191B88132BD8D9002000F0EFFC012365E1002000F0EAFC36
S1232600012360E1002000F0E5FC01235BE1002000F0E0FC012356E144F64033C2F2000355
S1232620BB61262308229B18DB1900221A801FE0262008254319DB191B880233BA69D318FC
S12326409B7B333BD9B204004319DB191A8848B246F26023C2F2000327219B185B18021C79
S12326601A706319DB191A886319DB1901321A80262308229B18DB191B880F2BD8D90020B5
S123268000F0A8FC46F2A573C2F2000301221A70012318E144F64033C2F20003BB61262308
S12326A008229B18DB1900221A801DE0262408256319DB191B880233BA69D3189B7B62192E
S12326C0D2191288333BD8B246F26023C2F200034B219B185B18021C1A706319DB191A88BB
S12326E06319DB1901321A80262308229B18DB191B88052BDAD9002000F06CFC46F2A57331
S1232700C2F2000301221A700123DCE044F64043C2F200031E22002118000BF034FB262311
S123272008229B18DB1900221A801DE0262008240319DB191A8846F26023C2F2000337211D
S12327409B185B18002159560319DB191A88C9B244F64043C2F2000399540319DB191A883F
S12327600319DB1901321A80262308229B18DB191B88132BDAD944F64043C2F200034522EF
S12327801E21180000F0D4FA01239CE044F64043C2F200031E22002118000BF0F4FA44F670
S12327A04043C2F2000346220F21180000F0C0FA012388E044F64043C2F200031E22002120
S12327C018000BF0E0FA44F64043C2F2000347220F21180000F0ACFA012374E044F6404318
S12327E0C2F200031E22002118000BF0CCFA44F64043C2F2000348220F21180000F098FA3C
S1232800012360E044F64043C2F200031E22002118000BF0B8FA2E4944F64043C2F20003CB
S12328200F2218000BF0A6FA44F64043C2F2000349220F21180000F07BFA012343E044F6A3
S12328404043C2F200031E22002118000BF09BFA262308229B18DB1900221A801BE0262416
S123286008256319DB1919886319DB191A8846F26023C2F200034B205B181B18197844F6B6
S12328804043C2F2000399546319DB191A886319DB1901321A80262308229B18DB191B8801
S12328A0042BDCD944F64043C2F200034A220521180000F03DFA012305E0C04602E0C046F4
S12328C000E0C04600231800BD460DB0F0BDC0468762002080B584B000AF78607B68BB6069
S12328E00E23FB1800221A7050E00F23FB1800221A703EE00F217B181B780322D31ABA681B
S1232900D3189B7A333BDAB244F63E33C2F200031A700E203B181B789A007B181B78D2180F
S12329204EF2A073C0F200039A5C44F63E33C2F200031B789A420CD03B181B789A007B18D5
S12329401B78D2184EF2A073C0F200039B5CFF2B15D10F23FB181B78032B04D10E23FB18C8
S12329601B789BB219E00F217B181A787B1801321A700F23FB181B78032BBBD900E0C04655
S12329800E217B181A787B1801321A700E23FB181B784B2BA9D94FF6FF731800BD4604B03A
S12329A080BD80B588B000AFF860B9607A601723FB1800221A701E23FB1800221A800EE078
S12329C01E217B181B88FA68D318BB61BB691B78682B0AD07B181A887B1801321A801E231B
S12329E0FB181B88FE2BEBD900E0C0461E23FB181B88FE2B01D9002344E01E23FB18002293
S1232A001A8010E01E203B181B88BA69D31819781722BB18BA1812788A181A703B181A88CC
S1232A203B1801321A801E23FB181A88BB695B7A0A339A42E6D3BB695B7A0A33BA69D3186D
S1232A401B781722BA1812789A4201D0002319E0BB695B7A0B33BA69D3181B78162B01D097
S1232A6000230FE0BB695B7A9BB20C339AB27B681A807B681B881A00B969BB6818000BF0FA
S1232A8079F901231800BD4608B080BDF0B5C9B000AF786008001100A24B40F220141B1947
S1232AA0DB19021C1A70A04B1B19DB190A1C1A7040F21D13FB1800221A700C23FB1840F21E
S1232AC00C117A1813607B181B6868221A707B181B686822DA717B181B6891221A7246F22E
S1232AE06023C2F200035A789C7824022243DC78240422431C792406224310005A799C792A
S1232B0024022243DC79240422431B7A1B061343190040F21013FB181860596040F21E1323
S1232B20FB1800221A8029E040F210157B1918685968642200230AF001FFD2B240F21E1600
S1232B40BB191C88100006F08BF803001A0040F20C13FB181B681B195A707B191868596899
S1232B60642200230AF0EAFE02000B0079190A604B60BB191A88BB1901321A8040F21E1299
S1232B80BB181B88052BCFD9BB1800221A8033E0654B40F220129B18DB191B789A0040F227
S1232BA01E103B181B88D1183B181B880322D21A4EF2A073C0F20003595C40F20C143B199A
S1232BC01B689B180A1C9A723B181B880322D31A3A191268D3189A7A3B181B880321CB1AB6
S1232BE03332D1B23A191268D3180A1C9A723B181A883B1801321A8040F21E117B181B8853
S1232C00032BC5D9474B40F220129B18DB191B780433DAB240F20C13FB181B685A727B18AB
S1232C2000221A8016E040F21E103B181B887A68D3181A783B181B883332D1B240F20C12FB
S1232C40BA181268D3180A1C9A733B181A883B1801321A80334B40F220129B18DB191B78D5
S1232C609BB240F21E117A1812889A42DBD37B1800221A8015E040F21E103B181B882B4ADD
S1232C8040F220115218D219D15C40F21D12BB18BA1812788A181A703B181A883B18013214
S1232CA01A8040F21E13FB181A881E4B40F220115B18DB191B780E339A42DCD3194B5B18F5
S1232CC0DB191B7840F20C103A181268D31840F21D12BA1812789A73124B5B18DB191B7843
S1232CE001333A181268D31816229A730D4B5B18DB191B789BB210339AB244F63C33C2F215
S1232D0000031A8044F63C33C2F200031A880C23FB181100180005F08CFFC046BD4649B023
S1232D20F0BDC046E3FEFFFFE2FEFFFFECFEFFFFF0B5C9B000AF786008001100A24B40F25A
S1232D4020141B19DB19021C1A70A04B1B19DB190A1C1A7040F21D13FB1800221A700C2358
S1232D60FB1840F20C117A1813607B181B6868221A707B181B686822DA717B181B6881221A
S1232D801A7246F26023C2F200035A789C7824022243DC78240422431C79240622431000AB
S1232DA05A799C7924022243DC79240422431B7A1B061343190040F21013FB1818605960FC
S1232DC040F21E13FB1800221A8029E040F210157B1918685968642200230AF0AFFDD2B2B5
S1232DE040F21E16BB191C88100005F039FF03001A0040F20C13FB181B681B195A707B191E
S1232E0018685968642200230AF098FD02000B0079190A604B60BB191A88BB1901321A806A
S1232E2040F21E12BB181B88052BCFD9BB1800221A8034E0654B40F220129B18DB191B78ED
S1232E409A0040F21E103B181B88D318991C3B181B880122D21A4EF2A073C0F20003595C1C
S1232E6040F20C143B191B689B180A1C9A723B181B880122D31A3A191268D3189A7A3B181B
S1232E801B880121CB1A3332D1B23A191268D3180A1C9A723B181A883B1801321A8040F26B
S1232EA01E117B181B88012BC4D9474B40F220129B18DB191B780233DAB240F20C13FB188B
S1232EC01B685A727B1800221A8016E040F21E103B181B887A68D3181A783B181B8833324A
S1232EE0D1B240F20C12BA181268D3180A1C1A733B181A883B1801321A80334B40F220121A
S1232F009B18DB191B789BB240F21E117A1812889A42DBD37B1800221A8015E040F21E106B
S1232F203B181B882A4A40F220115218D219D15C40F21D12BB18BA1812788A181A703B182F
S1232F401A883B1801321A8040F21E13FB181A881D4B40F220115B18DB191B780C339A42B3
S1232F60DCD3194B5B18DB191B7840F20C103A181268D31840F21D12BA1812781A73124B94
S1232F805B18DB191B7801333A181268D31816221A730D4B5B18DB191B789BB20E339AB257
S1232FA044F63C33C2F200031A8044F63C33C2F200031A880C23FB181100180005F039FE7A
S1232FC0C046BD4649B0F0BDE3FEFFFFE2FEFFFFECFEFFFFF0B5C9B000AF0200634B40F2EA
S1232FE020101B18DB191A7040F21D13FB1800221A700C23FB1840F20C117A1813607B18A2
S12330001B6868221A707B181B686822DA71574B1B18DB191B7823B17B181B6894221A72A2
S123302005E040F20C13FB181B6884221A7246F26023C2F200035A789C7824022243DC7857
S1233040240422431C792406224310005A799C7924022243DC79240422431B7A1B0613434A
S1233060190040F21013FB181860596040F21E13FB1800221A8029E040F210157B191868F4
S12330805968642200230AF059FCD2B240F21E16BB191C88100005F0E3FD03001A0040F2DD
S12330A00C13FB181B681B195A707B1918685968642200230AF042FC02000B0079190A609A
S12330C04B60BB191A88BB1901321A8040F21E117B181B88052BCFD940F20C13FB181B68D4
S12330E000225A727B1800221A8015E040F21E103B181B881E4A40F220115218D219D15CF7
S123310040F21D12BB18BA1812788A181A703B181A883B1801321A8040F21E13FB181B88C1
S1233120092BE3D9124B40F220115B18DB1940F21D12BA1812789A720D4B5B18DB191622B4
S1233140DA7244F63C33C2F200030C221A8044F63C33C2F200031A880C23FB18110018008A
S123316005F067FDC046BD4649B0F0BDE7FEFFFFECFEFFFFF0B5D7B000AF78600022002380
S123318040F2501179180A604B6010217B1840F24812BA1813600E23FA1879187B6818008E
S12331A000F0AAFD0300002B01D100F09FFD44F63F53C2F200031B78042B10D001DD00F0F5
S12331C091FD032B00D185E101DD00F08BFD012B00D110E1022B00D104E200F083FD10232D
S12331E0FB18180001F064FE0300032B02D0062B0AD0FDE047F2E043C2F2000341F2883262
S12332001A60012300F073FD40F24813FB181B68133340F24412BA1813600022002340F2FF
S1233220501179180A604B6040F24F13FB1800221A702DE06422002340F25016B9190868A0
S123324049680AF09FFB02000B00B9190A604B6040F24F117B181B780522D31A40F24412DD
S1233260BA181268D35C180005F030FD03001C000025BB191A685B6812196B41B81902602E
S1233280436040F24F117B181A787B1801321A7040F24F13FB181B78052BCBD946F26023B7
S12332A0C2F200035A789C7824022243DC78240422431C792406224310005A799C792402BF
S12332C02243DC79240422431B7A1B061343190040F25013FB181B68834205D140F254131F
S12332E0FB181B688B4262D046F26023C2F20003013340F25012BA1810781A7800210A40A4
S1233300111C021C0A431A7040F25112BA1810785A7800210A40111C021C0A435A7040F2C7
S12333205212BA1810789A7800210A40111C021C0A439A7040F25312BA181078DA78002148
S12333400A40111C021C0A43DA7040F25412BA1810781A7900210A40111C021C0A431A712A
S123336040F25512BA1810785A7900210A40111C021C0A435A7140F25612BA1810789A79AE
S123338000210A40111C021C0A439A7140F25712BA181078DA7900210A40111C021C0A43D0
S12333A0DA7146F2A573C2F2000301221A7040F24413FB181B689B7943B900F02BFF47F288
S12333C0E043C2F200030A221A6008E047F2E043C2F2000341F288321A6000F01BFF44F6C3
S12333E03F53C2F2000302221A70012300F07FFC002300F07CFC1023FB18180001F058FD14
S12334000300032B3BD140F24813FB181B68133340F21012B9180B60BB181B681B78A3B92D
S123342000220021002000F0B8FD47F2E043C2F2000341F288321A6044F63F53C2F2000383
S123344002221A70012300F052FC40F21013FB181B681B78042B0FD147F2E043C2F20003B8
S123346041F288321A6044F63F53C2F2000304221A70012300F03BFC002300F038FC1023E9
S1233480FB18180001F014FD0300042B01D000F02BFC40F24813FB181B68133340F2101224
S12334A0B9180B60BB181B681B78042B0FD147F2E043C2F2000341F288321A6044F63F538E
S12334C0C2F2000304221A70012300F010FC002300F00DFC1023FB18180001F0E9FC03000E
S12334E0042B02D0162B09D07AE047F2E043C2F200030A221A60012300F0F9FB40F2481305
S1233500FB181B68133340F240143A19136046F26023C2F2000301225A743B191B689B7832
S1233520180005F0D3FB030059B246F26023C2F200035B2299543B191B685B78180005F00B
S1233540C5FB030059B246F26023C2F200035A2299543B191B681B78180005F0B7FB030092
S123356059B246F26023C2F20003592299543B191B681033180001F0D3FC3B191B68180081
S123358001F012FD3B191B680633180001F081FD3B191B681B7B180001F0E7FE3B191B685E
S12335A00D33180001F0FEFE3B191B681B7D33B947F2E043C2F200030A221A600EE047F287
S12335C0E043C2F2000341F288321A6000F022FE44F63F53C2F2000302221A70012386E3D8
S12335E0002384E31023FB18180001F061FC0300033B112B00D971E39A00DC4BD3181B68B8
S12336009F4640F24813FB181B68133340F234143A191360002004F058FF46F2A673C2F2A8
S1233620000301221A703B191B681B7843B947F2E043C2F200030A221A6000F0EBFD08E0F7
S123364047F2E043C2F2000341F288321A6000F0E1FD01234BE340F24813FB181B68133363
S123366040F21C143A1913603B191B68180001F09BFC3B191B689B7943B900F0CBFD47F2CF
S1233680E043C2F200030A221A6008E047F2E043C2F2000341F288321A6000F0BBFD012378
S12336A025E340F24813FB181B68133340F214143A1913603B191B68180001F075FC220002
S12336C0BB181B689B7983B1BB181B689B799BB200221900002000F060FC47F2E043C2F2DA
S12336E0000341F288321A6017E040F21413FB181B68DB7943B900F08DFD47F2E043C2F29C
S123370000030A221A6008E047F2E043C2F2000341F288321A6000F07DFD0123E7E240F211
S12337204813FB181B68133340F23412B9180B60BB181B681B7843B900F06CFD47F2E04300
S1233740C2F200030A221A6008E047F2E043C2F2000341F288321A6000F05CFD40F2E83112
S1233760642009F0C5FDBCE240F24813FB181B68133340F244143A1913603B191B681800C0
S123378001F087FC3B191B689B7943B900F042FD47F2E043C2F200030A221A6008E047F2C1
S12337A0E043C2F2000341F288321A6000F032FD01239CE240F24813FB181B68133340F268
S12337C018143A1913603B191B68180001F017FD3B191B681B7943B900F01CFD47F2E04333
S12337E0C2F200030A221A6008E047F2E043C2F2000341F288321A6000F00CFD012376E291
S123380040F24813FB181B68133340F228143A1913603B191B68180001F082FB3B191B68D3
S12338201B7943B900F0F6FC47F2E043C2F200030A221A6008E000F0EDFC47F2E043C2F288
S1233840000341F288321A60012350E240F24813FB181B68133340F224143A1913603B19B7
S12338601B68180001F09EFD3B191B68DB7843B900F0D0FC47F2E043C2F200030A221A6082
S123388008E000F0C7FC47F2E043C2F2000341F288321A6001232AE240F24813FB181B68BC
S12338A0133340F220143A1913603B191B681B78180001F05AFD3B191B685B7843B900F032
S12338C0A9FC47F2E043C2F200030A221A6008E000F0A0FC47F2E043C2F2000341F2883212
S12338E01A60012303E240F24813FB181B68133340F234143A19136000F0C0FE3B191B6813
S12339001B7833B947F2E043C2F200030A221A60E7E147F2E043C2F2000341F288321A6029
S1233920DFE140F24813FB181B68133340F230143A1913603B191B681A000221012000F0F9
S12339402CFB3B191B68DB7833B947F2E043C2F200030A221A6006E047F2E043C2F2000374
S123396041F288321A600123C1E1C046B8E9000040F24813FB181B68133340F22C12B918C5
S12339800B60BB181B681B7833B947F2E043C2F200030A221A6006E047F2E043C2F2000331
S12339A041F288321A6000220121002000F0F5FA01239CE140F24813FB181B68133340F21D
S12339C03C117A1813607B181B681A785B781B0213439BB2002B00D08BE00D007B191B68CC
S12339E09A7844F64063C2F200031A707B191B68D91C44F64063C2F2000301229B180322F8
S1233A0018000AF0B7F97B191B680833190044F64063C2F2000306229B18032218000AF0CF
S1233A20A9F97B191B68DA7A1B7B1B0213439AB244F64063C2F200030F33FF2111400C00CD
S1233A40197800200140081C211C01431970120A90B25A7800210A40111C021C0A435A7045
S1233A6004F05AFE44F64063C2F2000309331A7800210A40111C01220A431A705A7800210F
S1233A800A405A7044F64063C2F200030B331A7800210A401A705A7800210A405A709A789C
S1233AA000210A409A70DA7800210A40DA707B191B689A79DB791B0213439AB244F640636C
S1233AC0C2F200039A807B191B685B7B33B947F2E043C2F200030A221A6006E047F2E0433D
S1233AE0C2F2000341F288321A6001F0D7F80123FDE040F24813FB181B68133340F23815FB
S1233B007A1913607B191B681A785B781B0213439AB244F64063C2F200039B681B021B0C85
S1233B209BB29A4200D0BCE044F64063C2F200039B681B021B0C9BB201339AB244F6406367
S1233B40C2F200030933FF2111400C00197800200140081C211C01431970120A90B25A78A1
S1233B6000210A40111C021C0A435A7044F64063C2F20003DA7ADB681B021B0A1B02134394
S1233B8019007B191B689A78DB781B0213439BB2CA1844F64063C2F200030B33FF211140A7
S1233BA00C00197800200140081C211C01431970110AFF2001400C00597800200140081CF8
S1233BC0211C01435970110CFF2001400C00997800200140081C211C01439970100EDA787E
S1233BE000210A40111C021C0A43DA707B191B689A78DB781B0213439BB21A007B191B6807
S1233C0004331900100004F094FD7B191B681A785B781B0213439BB25A1C44F64063C2F278
S1233C2000039B79190044F64063C2F20003DB799BB21B029BB2CB189A421DD17B191B68ED
S1233C401A785B781B0213439BB219004FF6FF7000F0E0FE40F2E83140F6B83009F048FBFB
S1233C60592001F0F8FC40F2E83140F2E83009F03FFB04F0DAFD28E044F64063C2F20003B3
S1233C809B681B021B0C98B240F23813FB181B681A785B781B0213439BB2190000F0BAFE96
S1233CA013E044F64063C2F200039B681B021B0C98B240F23813FB181B681A785B781B0253
S1233CC013439BB2190000F0A5FE47F2E043C2F2000341F288321A60012308E0002306E002
S1233CE0C04602E0C04600E0C04600E000231800BD4657B0F0BDC04690B589B000AFF8608F
S1233D00B9607A601423FB1800221A801723FB1800221A701E23FB1800221A8015E01E2466
S1233D203B191B88FA68D318BB614EF6B413C0F20003B869022219000AF00EF8030053B1FA
S1233D403B191A883B1901321A801E23FB181B88FE2BE4D900E0C0461E23FB181B88FE2B65
S1233D6001D900235EE0BB691B79682B11D0BB69DB7A682B0DD0BB699B7C5A1C1423FB18F4
S1233D801B88D318BA69D318DB7C162B01D0002348E01E23FB1800221A8010E01E203B183E
S1233DA01B88BA69D31819781722BB18BA1812788A181A703B181A883B1801321A801E23D3
S1233DC0FB181A88BB699B7C190014203B181B88CB1813339A42E1D3BB699B7C1A003B184B
S1233DE01B88D3181333BA69D3181B781722BA1812789A4201D0002314E0BB699B7C9AB26A
S1233E001423FB181B88D3189BB215339AB27B681A807B681B881A00B969BB68180009F072
S1233E20A9FF01231800BD4609B090BDB0B586B000AF002200233A617B610E23FB18002225
S1233E401A7047F2E043C2F2000341F288321A6044F65463C2F20003BB60BB6813337B6053
S1233E60BA684EF6B013C0F200031000190004231A0009F07FFFBB6868221A71BB6868229A
S1233E80DA72BB6805330622AA21180009F07BFF46F26023C2F200035A7A9C7A2402224312
S1233EA0DC7A240422431C7B2406224310005A7B9C7B24022243DC7B240422431B7C1B06D2
S1233EC013431900386179610F23FB1800221A7020E0386979696422002309F02FFDD2B236
S1233EE00F257B191C78100004F0BAFE03001A00BB681B191A73386979696422002309F080
S1233F001DFD02000B003A617B617B191A787B1901321A700F217B181B78032BD9D9BB682F
S1233F2000221A74BB6801225A74BB6801229A747B6816229A707B6803221A707B180022F9
S1233F401A7010E00F203B181B78BA68D31819780E22BB18BA1812788A181A703B181A78C0
S1233F603B1801321A700F23FB181A78BB689B7C13339A42E6D37B680E22BA1812785A7008
S1233F8044F65463C2F200031621180004F03AFE01231800BD4606B0B0BDB0B58AB000AF4A
S1233FA03A60FB1D021C1A703B1D0A1C1A8000237B612623FB1800221A7047F2E043C2F274
S1233FC0000341F288321A6044F65473C2F200033B613B691333FB603A694EF6B013C0F27E
S1233FE000031000190004231A0009F0C3FE46F26023C2F200035A789C7824022243DC785F
S1234000240422431C792406224310005A799C7924022243DC79240422431B7A1B0613437A
S12340201900B861F9613B6968221A713B696822DA722723FB1800221A7020E0B869F96931
S12340406422002309F07AFCD2B227257B191C78100004F005FE03001A003B691B195A7185
S1234060B869F9696422002309F068FC02000B00BA61FB617B191A787B1901321A7027256C
S12340807B191B78052BD9D946F26023C2F200035A7A9C7A24022243DC7A240422431C7BB2
S12340A02406224310005A7B9C7B24022243DC7B240422431B7C1B0613431900B861F96168
S12340C07B1900221A7020E0B869F9696422002309F034FCD2B227257B191C78100004F04B
S12340E0BFFD03001A003B691B191A73B869F9696422002309F022FC02000B00BA61FB61B7
S12341007B191A787B1901321A702723FB181B78032BD9D93B1D1B8813B1012B07D00DE0A5
S12341203B690A221A743B6900225A740DE03B69D2221A743B6901225A7406E03B69D22263
S12341401A743B6902225A74C0463B1D1B8823B13B1D1A883B1D013A1A803B6942229A7425
S1234160FB68432216219954FB1D1B7883B1FA683B681100180001F088FE03007B617B6908
S1234180BBB1FB6842220021180009F0FCFD10E0FA683B1D1B881100180001F0BAFE03009B
S12341A07B617B692BB1FB6842220021180009F0EAFD2723FB1800221A7010E027203B18EC
S12341C01B783A69D31819782622BB18BA1812788A181A703B181A783B1801321A70272347
S12341E0FB181A783B699B7C13339A42E6D3FB682622BA18422112785A5444F65473C2F2B3
S123420000035721180004F0FDFC00231800BD460AB0B0BDB0B586B000AF1623FB180022FD
S12342201A7045F25403C2F200037B607B6813333B607A684EF6B013C0F200031000190045
S123424004231A0009F096FD46F26023C2F200035A789C7824022243DC78240422431C7934
S12342602406224310005A799C7924022243DC79240422431B7A1B0613431900B860F960B0
S12342807B6868221A717B686822DA727B6801221A747B68FF225A747B6802229A743B684B
S12342A01622DA703B6800225A703B6800221A7046F26023C2F200035A789C7824022243B7
S12342C0DC78240422431C792406224310005A799C7924022243DC79240422431B7A1B06BA
S12342E013431900B860F9601723FB1800221A7020E0B868F9686422002309F01FFBD2B220
S123430017257B191C78100004F0AAFC03001A007B681B195A71B868F9686422002309F069
S12343200DFB02000B00BA60FB607B191A787B1901321A7017257B191B78052BD9D946F2FB
S12343406023C2F200035A7A9C7A24022243DC7A240422431C7B2406224310005A7B9C7BA5
S123436024022243DC7B240422431B7C1B0613431900B860F9607B1900221A7020E0B868D2
S1234380F9686422002309F0D9FAD2B217257B191C78100004F064FC03001A007B681B19C3
S12343A01A73B868F9686422002309F0C7FA02000B00BA60FB607B191A787B1901321A708F
S12343C01722BB181B78032BD9D9BB1800221A7010E017203B181B787A68D3181978162238
S12343E0BB18BA1812788A181A703B181A783B1801321A701723FB181A787B689B7C13334A
S12344009A42E6D33B681622BA1812789A7045F25403C2F200031721180004F0F3FB012327
S12344201800BD4606B0B0BDB0B5C4B000AF46F26023C2F200035B7C43B9FFF7F7FC44F64A
S12344403F53C2F2000303221A7011E140F20E13FB1800221A703B00FC243A19136044F601
S12344603F53C2F2000301221A7047F2E043C2F2000341F288321A603B191A684EF6B013EB
S1234480C0F200031000190004231A0009F072FC21007B181B6868221A717B181B686822A6
S12344A0DA727B181B6800221A747B181B6801225A747B181B6801229A747B181B6803225D
S12344C0DA7446F26023C2F200035A789C7824022243DC78240422431C7924062243100092
S12344E05A799C7924022243DC79240422431B7A1B06134319007B1CFF331860596040F212
S12345000F13FB1800221A7029E07B1CFF33186859686422002309F011FAD2B240F20F151C
S12345207B191C78100004F09BFB03001A00FC23FB181B681B195A717B1CFF3318685968DA
S12345406422002309F0FAF902000B00791CFF310A604B607B191A787B1901321A7040F232
S12345600F157B191B78052BCFD946F26023C2F200035A7A9C7A24022243DC7A240422434A
S12345801C7B2406224310005A7B9C7B24022243DC7B240422431B7C1B06134319007B1CC8
S12345A0FF33186059607B1900221A7029E07B1CFF33186859686422002309F0BFF9D2B263
S12345C040F20F157B191C78100004F049FB03001A00FC23FB181B681B191A737B1CFF33B5
S12345E0186859686422002309F0A8F902000B00791CFF310A604B607B191A787B1901325F
S12346001A7040F20F12BB181B78032BCFD9BB1800221A7015E040F20F103B181B78164A72
S123462040F210115218D219D15C40F20E12BB18BA1812788A181A703B181A783B18013289
S12346401A7040F20F13FB181B78132BE3D9FC217B181B6840F20E12BA1812781A757B18D5
S12346601B6816225A753B001621180004F0CAFABD4644B0B0BDC046F0FEFFFFB0B590B06F
S123468000AF3E23FB1800221A7044F64453C2F20003BB6247F2E043C2F2000341F28832A2
S12346A01A60BA6A4EF6B013C0F200031000190004231A0009F05EFBBB6A68221A71BB6A81
S12346C06822DA72BB6AD1221A74BB6A00225A74BB6A1F229A74BB6A23220321995446F21E
S12346E06023C2F200035A789C7824022243DC78240422431C792406224310005A799C790E
S123470024022243DC79240422431B7A1B0613431900386379633F23FB1800221A7029E062
S1234720386B796B6422002309F008F9D2B23F257B191C78100004F093FA03001A00BB6A68
S12347401B195A717B191B78BA6A12195179BA6AD3180A1CDA75386B796B6422002309F069
S1234760EDF802000B003A637B637B191A787B1901321A703F257B191B78052BD0D946F2B5
S12347806023C2F200035A7A9C7A24022243DC7A240422431C7B2406224310005A7B9C7B61
S12347A024022243DC7B240422431B7C1B0613431900386379637B1900221A7029E0386BFC
S12347C0796B6422002309F0B9F8D2B23F257B191C78100004F044FA03001A00BB6A1B19D6
S12347E01A737B191B78BA6A1219117BBA6AD3180A1CDA74386B796B6422002309F09EF8E4
S123480002000B003A637B637B191A787B1901321A703F243B191B78032BD0D93A0047F201
S12348205C53C2F200031100180005F029FA3B005B69DBB2180004F013FA03001A00BB6AE6
S12348405A773B001B69DBB2180004F009FA03001A00BB6A9A773B00DB68DBB2180004F0BE
S1234860FFF903001A00BB6ADA773B009B68DBB2180004F0F5F903001900BB6A2022995474
S12348803B005B68DBB2180004F0EAF903001900BB6A212299543B001B68DBB2180004F0D2
S12348A0DFF903001900BB6A2222995446F26023C2F200035D229A5C5E21595C09020A4337
S12348C05F21595C09040A4360215B5C1B061343FB623B1900221A701FE0FB6A6422B3FBA1
S12348E0F2F264214A439B1ADAB23F257B191C78100004F0B5F903001900BB6A28221B1980
S12349009B180A1C1A70FB6A6422B3FBF2F3FB627B191A787B1901321A703F22BB181B7817
S1234920032BDAD93A4B7B62BB1800221A7017E03F257B191B787A6AD3181A787B191C78A6
S1234940100004F08DF903001900BB6A25221B199B180A1C1A707B191A787B1901321A7033
S12349603F243B191B78022BE2D9BB6A2C3303220021180009F007FABB6A2F22072199549A
S1234980BB6A302202219954BB6A31220021995446F26023C2F2000358229B5C180004F017
S12349A05FF903001900BB6A242299543B1900221A7012E03F203B181A7844F64453C2F26C
S12349C00003995C3E22BB18BA1812788A181A703B181A783B1801321A703F23FB181B7823
S12349E0312BE7D9BB6A3E22BA18322112785A54BB6A33221621995444F64453C2F200038F
S1234A003421180004F0FEF8C046BD4610B0B0BDB5620020B0B588B000AF0200BB1D1A800E
S1234A203B1D0A1C1A801E23FB1800221A7044F64453C2F20003FB6047F2E043C2F2000364
S1234A4041F288321A60FA684EF6B013C0F200031000190004231A0009F08CF9FB686822F8
S1234A601A71FB686822DA72FB68DF221A74FB6800225A74FB6809229A74FB680022DA76B8
S1234A80FB6801225A75FB683A1D13331478197800200140081C211C0143197050785A7877
S1234AA000210A40111C021C0A435A70FB68BA1D1478997D00200140081C211C0143997535
S1234AC05078DA7D00210A40111C021C0A43DA7544F64063C2F20003DA7ADB681B021B0AF4
S1234AE01B0213431B0CDAB2FB689A7644F64063C2F20003DA7ADB681B021B0A1B02134339
S1234B001B0ADAB2FB685A7644F64063C2F20003DA7ADB681B021B0A1B021343DAB2FB68DE
S1234B201A7646F26023C2F200035A789C7824022243DC78240422431C79240622431000E9
S1234B405A799C7924022243DC79240422431B7A1B0613431900386179611F23FB180022ED
S1234B601A7020E0386979696422002308F0E6FED2B21F257B191C78100004F071F803003F
S1234B801A00FB681B195A71386979696422002308F0D4FE02000B003A617B617B191A78F5
S1234BA07B1901321A701F257B191B78052BD9D946F26023C2F200035A7A9C7A240222436C
S1234BC0DC7A240422431C7B2406224310005A7B9C7B24022243DC7B240422431B7C1B06A5
S1234BE013431900386179617B1900221A7020E0386979696422002308F0A0FED2B21F2505
S1234C007B191C78100004F02BF803001A00FB681B191A73386979696422002308F08EFE50
S1234C2002000B003A617B617B191A787B1901321A701F22BB181B78032BD9D9BB180022F9
S1234C401A7012E01F203B181A7844F64453C2F20003995C1E22BB18BA1812788A181A7098
S1234C603B181A783B1801321A701F23FB181B781B2BE7D9FB681E22BA1812781A77FB685A
S1234C8016225A7744F64453C2F200031E21180003F0B8FFC046BD4608B0B0BDB0B586B0B5
S1234CA000AF1623FB1800221A7044F64453C2F200037B6047F2E043C2F2000341F28832E6
S1234CC01A607A684EF6B013C0F200031000190004231A0009F04EF87B6868221A717B6834
S1234CE06822DA727B68DF221A747B6800225A747B6807229A747B6803225A757B6800229F
S1234D005A767B6801229A757B6813331A7800210A401A705A7800210A405A707B681733C6
S1234D201A7800210A40111C01220A431A705A7800210A405A7046F26023C2F200035A7800
S1234D409C7824022243DC78240422431C792406224310005A799C7924022243DC792404AB
S1234D6022431B7A1B0613431900B860F9601723FB1800221A7020E0B868F9686422002311
S1234D8008F0DCFDD2B217257B191C78100003F067FF03001A007B681B195A71B868F9686D
S1234DA06422002308F0CAFD02000B00BA60FB607B191A787B1901321A7017257B191B782B
S1234DC0052BD9D946F26023C2F200035A7A9C7A24022243DC7A240422431C7B24062243FD
S1234DE010005A7B9C7B24022243DC7B240422431B7C1B0613431900B860F9607B190022F6
S1234E001A7020E0B868F9686422002308F096FDD2B217257B191C78100003F021FF030041
S1234E201A007B681B191A73B868F9686422002308F084FD02000B00BA60FB607B191A7865
S1234E407B1901321A701722BB181B78032BD9D9BB1800221A7012E017203B181A7844F6B7
S1234E604453C2F20003995C1622BB18BA1812788A181A703B181A783B1801321A70172329
S1234E80FB181B78192BE7D97B681622BA1812789A767B681622DA7644F64453C2F20003EA
S1234EA01C21180003F0AEFEC046BD4606B0B0BD80B584B000AF78607B68BB600F23FB189B
S1234EC000221A7022E0BB681A7C0F203B181B7859004EF68013C0F200035B5C9A420FD1FA
S1234EE0BB685A7C3B181B785B00591C4EF68013C0F200035B5C9A4202D13B181B780BE03C
S1234F000F217B181A787B1801321A700F23FB181B78162BD7D9FF231800BD4604B080BDF1
S1234F20F0B587B000AF786000220023BA60FB601723FB1800221A7023E064220023B8688B
S1234F40F96808F01FFD02000B00BA60FB601726BB191B780322D31A1A007B689B181B785D
S1234F60180003F0B3FE03001C000025BA68FB6812196B41BA60FB60BB191A78BB190132EF
S1234F801A701723FB181B78032BD6D9BB68180003F09BFA46F2A673C2F2000301221A704E
S1234FA0C046BD4607B0F0BD90B58DB000AF78607B681B78212B68D97B689B78312B64D8E6
S1234FC07B685B78122B60D87B68DB78242B5CD87B681B79602B58D87B685B79602B54D849
S1234FE07B681B78180003F071FE03001A000C243B195A617B689B78180003F067FE0300F8
S12350001A003B19DA607B685B78180003F05EFE03001A003B191A617B68DB78180003F09A
S123502055FE03001A003B199A607B681B79180003F04CFE03001A003B195A607B685B7900
S1235040180003F043FE03001A003B191A6047F25C53C2F20003180004F041FD4EF6205276
S1235060C0F2000247F25C53C2F200031100180004F0ECFC3A1947F25C53C2F200031100D1
S1235080180004F083FD03F07EF9C046BD460DB090BDF0B587B000AF7860002200233A61C0
S12350A07B610F23FB1800221A7023E0642200233869796908F066FC02000B003A617B6112
S12350C00F26BB191B780522D31A1A007B689B181B78180003F0FAFD03001C0000253A69F0
S12350E07B6912196B413A617B61BB191A78BB1901321A700F23FB181B78052BD6D946F294
S12351006023C2F200035A789C7824022243DC78240422431C792406224310005A799C79E3
S123512024022243DC79240422431B7A1B06134319003B69834203D17B698B4200D15AE0E0
S123514046F26023C2F2000301331022BA1810781A7800210A40111C021C0A431A701122C7
S1235160BA1810785A7800210A40111C021C0A435A701222BA1810789A7800210A40111CFA
S1235180021C0A439A701322BA181078DA7800210A40111C021C0A43DA701422BA181078D8
S12351A01A7900210A40111C021C0A431A711522BA1810785A7900210A40111C021C0A4363
S12351C05A711622BA1810789A7900210A40111C021C0A439A711722BA181078DA79002146
S12351E00A40111C021C0A43DA7146F2A573C2F2000301221A70C046BD4607B0F0BDF0B5B8
S123520087B000AF7860002200233A617B610F23FB1800221A7023E06422002338697969F0
S123522008F0B0FB02000B003A617B610F26BB191B780322D31A1A007B689B181B7818003A
S123524003F044FD03001C0000253A697B6912196B413A617B61BB191A78BB1901321A7006
S12352600F23FB181B78032BD6D946F26023C2F200035A7A9C7A24022243DC7A24042243AB
S12352801C7B2406224310005A7B9C7B24022243DC7B240422431B7C1B06134319003B69AE
S12352A0834203D17B698B4200D15AE046F26023C2F2000309331022BA1810781A780021A8
S12352C00A40111C021C0A431A701122BA1810785A7800210A40111C021C0A435A701222FE
S12352E0BA1810789A7800210A40111C021C0A439A701322BA181078DA7800210A40111CB8
S1235300021C0A43DA701422BA1810781A7900210A40111C021C0A431A711522BA18107892
S12353205A7900210A40111C021C0A435A711622BA1810789A7900210A40111C021C0A4320
S12353409A711722BA181078DA7900210A40111C021C0A43DA7146F2A573C2F200030122E0
S12353601A70C046BD4607B0F0BD80B582B000AF0200FB1D1A70FB1D1B78180003F0A6FC20
S12353800300190046F26023C2F200035822995446F2A573C2F2000301221A70C046BD4657
S12353A002B080BDB0B584B000AF7860144BBB600F23FB1800221A7013E00F257B191B7821
S12353C07A68D31819787B191B78BA68D418080003F07CFC030023707B191A787B19013240
S12353E01A700F23FB181B78022BE6D946F2A573C2F2000301221A70C046BD4604B0B0BD7D
S1235400B562002080B584B000AF0200BB1D1A807B1D0A1C1A700F23FB1800221A7023E089
S1235420BB1D1B881A127B1D1B7853408022134053B1BB1D1B885B001BB243F665525340E4
S12354401AB2BB1D1A8004E0BA1DBB1D1B88DB1813807A1D7B1D1B78DB1813700F217B1853
S12354601A787B1801321A700F23FB181B78072BD6D9BB1D1B881800BD4604B080BDB0B5A1
S123548084B000AF78600A00BB1C1A800C23FB1800221A800E23FB1800221A8014E00E25AD
S12354A07B191B887A68D3181A780C23FC18FB181B8811001800FFF7A5FF030023807B195C
S12354C01A887B1901321A800E23FA18BB1C12881B889A42E3D30C23FB181B881800BD46DC
S12354E004B0B0BD80B500AFBFF34F8FC0464EF60053CEF200030422C0F2FA52DA60BFF3A3
S12355004F8FC046C046FDE790B583B000AF44F66823C2F200031B785BB240F2004CC0F246
S1235520100C63449B021A0046F26023C2F200031800110040F203131A0008F01BFCBC1D08
S123554046F26023C2F2000340F201111800FFF796FF0300238046F26023C2F2000340F2A4
S123556001129A5C40F202115B5C1B0213439BB2BA1D12889A4201D000233DE046F2602349
S1235580C2F200035A7A9C7A24022243DC7A240422431C7B2406224310005A7B9C7B2402B0
S12355A02243DC7B240422431B7C1B061343190003000B43EBB146F26023C2F200035A7A44
S12355C09C7A24022243DC7A240422431C7B2406224310005A7B9C7B24022243DC7B240417
S12355E022431B7C1B0613431900431C03D14B1C01D1002300E001231800BD4603B090BD6D
S123560080B582B000AF00237B604EF6E442C0F2000247F21C53C2F200031100180006F0D6
S12356201EFB03007B607B681800BD4602B080BD80B582B000AF0023C4F210031B687B6022
S12356407B68592B02D1002000F005F8C0461800BD4602B080BD80B584B000AF78600B23D1
S1235660FB1800221A7045F25513C2F2000300221A700023C4F2100347F21C50C2F2000020
S12356800122190006F053FB0300FB60FB680BB1FB6878E04EF6E443C0F200031B785BB18F
S12356A0C04645F25513C2F200031B78DBB201225340DBB2002BF4D145F25513C2F20003E1
S12356C01B78DBB2002B5ED045F25313C2F2000300221A7045F25413C2F2000300221A704C
S12356E00B23FB180021C4F2100147F21C50C2F20000042206F058FB0300FB60FB680BB138
S1235700FB6840E00B22BB181B788BB1BB181B78012B01D1192336E00B23FB181B78022B7C
S123572006D100F063FD0300012B01D119232AE045F25613C2F2000300221A700022C4F21C
S12357401002796847F21C50C2F20000042306F0C2FA0300FB60FB680BB1FB6813E04EF609
S1235760E443C0F200031B785BB1C04645F25613C2F200031B78DBB201225340DBB2002BBF
S1235780F4D1FB68FFE71800BD4604B080BDF0B597B000AF0200FB1D1A70BB1D0A1C1A7024
S12357A03323FB1800221A70BB1D1B788BBB5323FB1801221A7046F26023C2F2000340F245
S12357C001111800FFF75BFE0300190046F26023C2F2000340F20112FF2008400500985C19
S12357E000242040041C281C20439854090A88B29B185A7800210A40111C021C0A435A70CF
S123580040F203137B6546F26023C2F20003FB6407E25323FB1802221A7046F2A033C2F2AC
S12358200003FB6446F26023C2F200035822995C46F26023C2F200039B229A5C9C201B5CC9
S12358401B0213431B041B141BB21C00080003F007FA0300190046F2A032C2F2000223009F
S12358605B011B195B00D31803330A1C1A7046F26023C2F200035B229B56DBB2180003F0F0
S1235880EFF90300180046F26023C2F200039B229A5C9C215B5C1B0213431B041B141BB2DA
S12358A0190040B246F2A032C2F200020B005B015B185B00D3180233021C1A7046F2602361
S12358C0C2F200035A229B56DBB2180003F0C8F90300180046F26023C2F200039B229A5C07
S12358E09C215B5C1B0213431B041B141BB2190040B246F2A032C2F200020B005B015B18FD
S12359005B00D3180133021C1A7046F26023C2F2000359229B56DBB2180003F0A1F903004E
S1235920180046F26023C2F200039B229A5C9C215B5C1B0213431B041B141BB2190040B219
S123594046F2A032C2F200020B005B015B185B00011C99544B23FB1800221A7067E046F298
S12359606023C2F200039B229A5C9C215B5C1B0213431B041B141BB219004B203B181A78CB
S12359800B005B015B189B1804335A0046F2A033C2F20003D318BB633B181A784824391977
S12359A046F26023C2F2000330325200981840789B189B781B0203430B803B191B8842F276
S12359C00F72934202D93B1900221A804723FB1800221A7020E048257B191B886422B3FB81
S12359E0F2F264214A439B1A9BB2D9B24726BB191B78BA6BD418080003F032F9030023707F
S1235A0079197B191B886422B3FBF2F30B80BB191A78BB1901321A704723FB181B78012BE2
S1235A20D9D94B217B181A787B1801321A704B203B181B78172B92D946F26023C2F200035F
S1235A409D229A5C9E21595C09020A439F21595C09040A43A0215B5C1B0613433B6446F22C
S1235A606023C2F200039B229A5C9C215B5C1B0213431B041B141BB21A0013005B019B18F7
S1235A805B0046F2A032C2F200029B180433BB633B1800221A701CE03B6CDBB26422B3FB7C
S1235AA0F2F264214A439B1AD9B24B257B191B78BA6BD418080003F0D3F8030023703B6C01
S1235AC06422B3FBF2F33B647B191A787B1901321A704B23FB181B78032BDDD944F64053CE
S1235AE0C2F200031B78180003F0BAF803001C0046F26023C2F200039B229A5C9C215B5CE3
S1235B001B0213431B041B141BB2180064B246F2A032C2F20002402103005B011B185B00B7
S1235B20D3185B18221C1A7044F64053C2F200035B78180003F094F803001C0046F2602373
S1235B40C2F200039B229A5C9C215B5C1B0213431B041B141BB2180064B246F2A032C2F2E9
S1235B600002412103005B011B185B00D3185B18221C1A7046F26023C2F200039B229A5C85
S1235B809C215B5C1B0213431B041B141BB2190046F2A032C2F200020B005B015B185B00F1
S1235BA0D31838331A7900210A401A715A7900210A405A719A7900210A409A71DA790021FC
S1235BC00A40DA7146F26023C2F200039B229A5C9C215B5C1B0213431B041B141BB21900EC
S1235BE046F2A032C2F200020B005B015B185B00D31838331A7800210A401A705A780021DC
S1235C000A405A709A7800210A409A70DA7800210A40DA7040F2DE337B6502E07B6D0133BD
S1235C207B657B6D03221340002BF7D13E23FB1800221A8011E03E203B181B88FA6CD31867
S1235C403A181288197845F65813C2F2000399543B181A883B1801321A803E23FB181B884D
S1235C607A6D9A42E7D845F25313C2F2000300221A7045F25413C2F2000300221A70532327
S1235C80FB181B7840F2004CC0F2100C634499023323FB187A6D47F21C50C2F2000006F02D
S1235CA083F803007B637B6B0BB17B6BE9E03322BB181B784BB1BB181B78012B05D0BB1842
S1235CC01B78022B01D100F091FA45F25513C2F2000300221A705323FB181B7840F2004C17
S1235CE0C0F2100C6344990247F21C53C2F200030122180006F01BF803007B637B6B0BB16A
S1235D007B6BBEE04EF6E443C0F200031B785BB1C04645F25513C2F200031B78DBB201229D
S1235D205340DBB2002BF4D145F25513C2F200031B78DBB2002B39D045F25313C2F2000351
S1235D4000221A7045F25413C2F2000300221A705323FB181B7840F2004CC0F2100C634483
S1235D6099023323FB187A6D47F21C50C2F2000006F01AF803007B637B6B0BB17B6B80E00A
S1235D803322BB181B788BB1BB181B78012B01D1192376E03323FB181B78022B06D100F022
S1235DA025FA0300012B01D119236AE053243B191B7840F2004CC0F2100C63449B02190032
S1235DC07A6D45F25813C2F20003180007F0D2FF45F25613C2F2000300221A7045F65811F8
S1235DE0C2F200013B191B7840F2004CC0F2100C63449A027B6D47F21C50C2F2000005F03E
S1235E006AFF03007B637B6B0BB17B6B39E04EF6E443C0F200031B785BB1C04645F256132E
S1235E20C2F200031B78DBB201225340DBB2002BF4D15323FB181B7840F2004CC0F2100CEC
S1235E4063449B0219007A6D45F25813C2F20003180007F08FFF7A6D45F65811C2F20001C4
S1235E6045F25813C2F20003180007F075FF030023B9FB1D1B781BB1FFF734FBCA2300E0FA
S1235E807B6B1800BD4617B0F0BD80B586B000AF786039601523FB1802221A7000233B6146
S1235EA03B68FB601623FB1800221A8027E01623FB181A8813005B019B185B001A00152314
S1235EC0FB181B789B02D31840F2000CC4F2100C634419003B684222180007F04BFFFB68FD
S1235EE079680322180007F037FF03000BB93B690BE016217B181A887B1801321A801623F8
S1235F00FB181B880E2BD2D903231800BD4606B080BD80B584B000AF02003960BB1D1A808A
S1235F200D23FB1802221A700023BB6046F26023C2F200039B229A5C9C215B5C1B02134322
S1235F401B041B141BB21A00BB1D1B889A4214DB46F26023C2F200039B229A5C9C215B5C29
S1235F601B0213431B041B141BB299B20E23FB18BA1D12888A1A1A8015E046F26023C2F2ED
S1235F8000039B229A5C9C215B5C1B0213431B041B141BB29AB2BB1D1B88D31A9AB20E2314
S1235FA0FB180F321A800E23FB181A8813005B019B185B001A000D23FB181B789B02D31814
S1235FC040F2000CC4F2100C634419003B684222180007F0CFFE3B681B78FF2B01D10323B2
S1235FE000E0BB681800BD4604B080BD80B582B000AFFB1D02221A7000233B60FB1D1B7849
S123600040F2004CC0F2100C63449B02190046F2A033C2F2000340F2DE32180007F0AAFE18
S12360203B681800BD4602B080BD80B584B000AF39601100FB1D021C1A703B1D0A1C1A8015
S12360400023FB6004E03B1D1A883B1D01321A803B1D1B88032213409BB2002BF3D147F2D3
S12360601C53C2F20003180005F0DBFE0300FB600B203B1800221A70FB1D1B78D9023B1DAA
S12360801A883B1847F21C50C2F2000005F08CFE0300FB60FB680BB1FB68A3E045F255132D
S12360A0C2F2000300221A700B23FB181B78012B16D1FB1D1B78D90247F21C53C2F20003AD
S12360C00122180005F033FE0300FB60FB680BB1FB6887E045F25513C2F2000301221A7011
S12360E045F25513C2F200031B78DBB2E3B1FB1D1B78D9023B1D1A880B23FB1847F21C502C
S1236100C2F2000005F050FE0300FB60FB680BB1FB6867E00B22BB181B782BB1BB181B7888
S1236120012B01D119235DE03968FB1D1B78DA023B1D1B8847F21C50C2F2000005F0CBFDAB
S12361400300FB60FB680BB1FB684BE0FB1D1B78DB0219003B1D1A8845F25813C2F200033C
S1236160180007F007FE3B1D1A88396845F25813C2F20003180007F0EFFD03000BB1CA236C
S123618030E0FB680BB1FB682CE0FB1D1B78D90247F21C53C2F200030122180005F0C7FD84
S12361A00300FB60FB680BB1FB681BE03968FB1D1B78DA023B1D1B8847F21C50C2F2000084
S12361C005F089FD0300FB60FB680BB1FB6809E047F21C53C2F20003180005F022FE0300E8
S12361E0FB60FB681800BD4604B080BD80B500AFC04645F25313C2F200031B78DBB2012250
S12362005340DBB253B145F25413C2F200031B78DBB201225340DBB2002BEAD145F253131B
S1236220C2F200031B78DBB20BB1012300E000231800BD4680BD80B582B000AF78607B6877
S12362401B78032B07D022DC022B0BD01FDC83B1012B15D01BE045F25313C2F200030122EA
S12362601A7015E045F25413C2F2000301221A700EE045F25513C2F2000301221A7007E0C1
S123628045F25613C2F2000301221A7000E0C046C046BD4602B080BD80B500AF44F669236E
S12362A0C2F200031B781800BD4680BD80B500AF44F66923C2F2000302221A70C046BD4620
S12362C080BD80B500AF44F66923C2F2000300221A7047F2D843C2F2000300221A6046F291
S12362E05913C2F2000300221A7047F2E443C2F2000300221A70C046BD4680BD80B500AFDE
S123630046F25913C2F2000300221A7044F66A23C2F200030A221A8047F2D843C2F2000323
S1236320C8221A6047F2E443C2F2000300221A70C046BD4680BDFFFF80B586B000AFF8607C
S1236340B960FB1D1A704EF61C33C0F20003FA681900100007F054FD03007B617B695BB392
S123636046F25813C2F2000301221A70BA68F96847F2C853C2F20003180002F03BFF40F20E
S1236380E83140F2D07006F0B3FF00F08FFEBB689AB27B6911001800FBF75AFD0300C3B10D
S12363A0FB680121180000F075FF46F2A573C2F2000301221A700CE04EF69833C0F2000374
S12363C0FA681900100007F01BFD03000BB100F06DFE46F25913C2F200031B780B2B01D907
S12363E000F0B6FB9A00C54BD3181B689F46FB1D1B78002B01D000F094FB44F66923C2F25B
S123640000031B78002B01D100F08BFB44F66923C2F200031B78013BDAB244F66923C2F21D
S123642000031A7000F066FC46F25913C2F2000301221A7047F2D843C2F20003C8221A6002
S123644044F66A23C2F200030A221A8000F069FBFB1D1B78BBB944F66A23C2F200031B8860
S1236460013B9AB244F66A23C2F200031A8044F66A23C2F200031B8813B900F07BFE52E3ED
S123648000F07CFD4FE3FB1D1B78012B00D04AE3BB689AB2FB681100180000F0E0FB0300C0
S12364A073B144F66A23C2F200030A221A8046F25913C2F2000302221A7000F0DFFC32E387
S12364C046F25C23C2F2000300221A702BE3FB1D1B78BBB944F66A23C2F200031B88013B14
S12364E09AB244F66A23C2F200031A8044F66A23C2F200031B8813B900F03CFE15E300F035
S1236500BDFC12E3FB1D1B78012B00D00DE3BB689AB2FB681100180000F088FB0300002B96
S123652000D102E344F66A23C2F2000302221A8046F25913C2F2000303221A7046F25C23A4
S1236540C2F2000300221A7046F25C23C2F200031B78180000F03CFEE7E2FB1D1B784BBB17
S123656044F66A23C2F200031B88013B9AB244F66A23C2F200031A8044F66A23C2F20003D8
S12365801B8813B900F0F6FD0DE046F25C23C2F2000300221A7046F25C23C2F200031B789D
S12365A0180000F015FE47F2D843C2F20003C8221A60BCE2FB1D1B78012B00D0B7E24EF62B
S12365C0C423C0F20003FA681900100007F018FC03007B617B69002B00D1A8E246F25C2385
S12365E0C2F200031B78042B00D9A0E246F25C23C2F200031B78180000F0EAFD46F25C231C
S1236600C2F200031B780133DAB246F25C23C2F200031A7046F25C23C2F200031B78052B43
S123662000D084E244F66A23C2F200030A221A8046F25913C2F2000304221A7000F08CFA5B
S123664075E2FB1D1B78BBB944F66A23C2F200031B88013B9AB244F66A23C2F200031A80FF
S123666044F66A23C2F200031B8813B900F082FD5FE200F071FA5CE2FB1D1B78012B00D039
S123668057E2BB689AB2FB681100180000F083FA0300002B00D14CE244F66A23C2F20003AA
S12366A00A221A8047F2D843C2F2000340F2B0421A6046F25913C2F2000305221A7000F06B
S12366C07CFC36E2FB1D1B78D3B944F66A23C2F200031B88013B9AB244F66A23C2F20003C8
S12366E01A8044F66A23C2F200031B8813B900F041FD20E200F061FC1DE2C046D8EB0000CA
S1236700FB1D1B78012B00D015E2BB689AB2FB681100180000F0BCFA0300002B00D10AE24B
S123672046F28C33C2F200031B78C3B146F28C33C2F2000300221A7047F2D843C2F200033B
S123674064221A6046F25913C2F2000306221A7044F66A23C2F2000306221A80EBE144F6E2
S12367606A23C2F200030A221A8046F25913C2F2000307221A7000F03FFCDCE1FB1D1B786A
S12367808BBB44F66A23C2F200031B88013B9AB244F66A23C2F200031A8044F66A23C2F273
S12367A000031B88ABB944F66A23C2F200030A221A8047F2D843C2F2000340F2B0421A60DE
S12367C046F25913C2F2000307221A7000F014FCB3E100F052FC47F2D843C2F2000340F298
S12367E0E8321A60A9E146F25813C2F200031B78002B00D1A1E146F25813C2F20003002290
S12368001A7044F66A23C2F200030A221A8047F2D843C2F2000340F22C121A6046F259130D
S1236820C2F2000307221A7000F0E6FB85E1FB1D1B78BBB944F66A23C2F200031B88013B37
S12368409AB244F66A23C2F200031A8044F66A23C2F200031B8813B900F08CFC6FE100F02B
S1236860CBFB6CE1FB1D1B78012B00D067E1BB689AB2FB681100180000F063FC030073B1A1
S123688044F66A23C2F200030A221A8046F25913C2F2000309221A7000F04CFA4FE144F600
S12368A06A23C2F200030A221A8046F25913C2F2000308221A7000F0BFFB40E1FB1D1B7845
S12368C0BBB944F66A23C2F200031B88013B9AB244F66A23C2F200031A8044F66A23C2F204
S12368E000031B8813B900F045FC2AE100F0A4FB27E1FB1D1B78012B00D022E1BB689AB236
S1236900FB681100180000F003FC0300002B00D117E144F66A23C2F200030A221A8046F285
S12369205913C2F2000309221A7000F003FA08E1FB1D1B78FBB944F66A23C2F200031B8825
S1236940013B9AB244F66A23C2F200031A8044F66A23C2F200031B8853B900F06DFA40F2DD
S1236960E83140F2E83006F0C3FC00F003FCEAE000F0E0F9E7E0FB1D1B78012B00D0E2E049
S1236980BB689AB2FB681100180000F09AF90300ABB144F66A23C2F200030A221A8046F29A
S12369A05913C2F200030A221A70FDF73DFD47F2D843C2F2000340F2FE121A60C3E0BB683F
S12369C09AB2FB681100180000F017F90300002B00D1B8E047F2D843C2F2000340F2FE12F7
S12369E01A6044F66A23C2F2000301221A80AAE0FB1D1B78F3B944F66A23C2F200031B88DC
S1236A00013B9AB244F66A23C2F200031A8044F66A23C2F200031B8813B900F0ABFB94E0DB
S1236A20FDF702FD47F2D843C2F2000340F2FE121A608AE0FB1D1B78012B00D085E0FB68BF
S1236A401800FCF797FB0300E3B144F66A23C2F200030A221A8046F25913C2F200030B2232
S1236A601A7047F2E443C2F2000301221A70012140F60F1001F014FB012140F60E1001F0E6
S1236A800FFB62E0BB689AB2FB681100180000F09BF80300002B58D047F2E443C2F20003BB
S1236AA000221A7000F066FB4FE0FB1D1B78ABB944F66A23C2F200031B88013B9AB244F6B4
S1236AC06A23C2F200031A8044F66A23C2F200031B88002B3BD100F04DFB38E0FB1D1B7881
S1236AE0012B34D1BB689AB2FB681100180000F06BF803000BB100F03DFBFB681800FCF7BE
S1236B0039FB03001BBB44F66A23C2F200030A221A8047F2D843C2F2000340F24C421A60DB
S1236B2015E0C04614E0C04612E0C04610E0C0460EE0C0460CE0C0460AE0C04608E0C046AA
S1236B4006E0C04604E0C04602E0C04600E0C046C046BD4606B080BDB0B500AF46F25C12D7
S1236B60C2F200024EF60C23C0F2000313CB13C21B78137046F25C13C2F200030D211800C6
S1236B8002F040F847F2D843C2F20003C8221A60C046BD46B0BD80B582B000AF78600A00EA
S1236BA0BB1C1A804EF61C23C0F200037A681900100007F025F903000BB1012300E0002322
S1236BC01800BD4602B080BD80B582B000AF78600A00BB1C1A804EF6F023C0F200037A6850
S1236BE01900100007F00CF903000BB1012300E000231800BD4602B080BD80B582B000AF66
S1236C0078600A00BB1C1A804EF60033C0F200037A681900100007F0F3F803000BB1012321
S1236C2000E000231800BD4602B080BD80B582B000AF78600A00BB1C1A804EF6C423C0F2FD
S1236C4000037A681900100007F0DAF803000BB1012300E000231800BD4602B080BD80B534
S1236C6082B000AF78600A00BB1C1A804EF6C423C0F200037A681900100007F0C1F803003E
S1236C800BB1012300E000231800BD4602B080BD80B582B000AF78600A00BB1C1A804EF656
S1236CA03423C0F200037A681900100007F0A8F803000BB1012300E000231800BD4602B06F
S1236CC080BD80B582B000AF78600A00BB1C1A804EF6A423C0F200037A681900100007F048
S1236CE08FF803000BB1012300E000231800BD4602B080BD80B500AF46F25C12C2F20002D9
S1236D004EF6CC23C0F20003198811809B78937046F25C13C2F200030321180001F072FF43
S1236D2040F2E83140F2D07006F0E2FAC046BD4680BDFFFF80B500AF46F25C13C2F200033A
S1236D4000221A7046F25C13C2F20003180007F050F803001A0046F25C13C2F20003D21869
S1236D604EF68823C0F200031000190013231A0007F000F82E4A46F25C13C2F2000311001C
S1236D80180007F029F846F25C13C2F20003180007F02FF803001A0046F25C13C2F20003B0
S1236DA0D2184EF6A033C0F200031000190002231A0006F0DFFF1F4A46F25C13C2F2000316
S1236DC01100180007F008F846F25C13C2F20003180007F00EF803001A0046F25C13C2F2A4
S1236DE00003D2184EF69C23C0F200031000190007231A0006F0BEFF46F25C13C2F200036C
S1236E00180006F0F6FF03009AB246F25C13C2F200031100180001F0F5FE47F2D843C2F2A9
S1236E20000340F22C121A60C046BD4680BDC04687620020AB620020B0B500AF46F25C1324
S1236E40C2F200034EF6B022C0F2000213CA13C31168196012791A7146F25C13C2F2000394
S1236E601021180001F0CEFE47F2D843C2F20003C8221A60C046BD46B0BDFFFF80B500AF41
S1236E8046F25C13C2F2000300221A7046F25C13C2F20003180006F0ACFF03001A0046F278
S1236EA05C13C2F20003D2184EF66423C0F200031000190011231A0006F05CFF2D4A46F2C7
S1236EC05C13C2F200031100180006F085FF46F25C13C2F20003180006F08BFF03001A00D2
S1236EE046F25C13C2F20003D2184EF6A033C0F200031000190002231A0006F03BFF1E4A7A
S1236F0046F25C13C2F200031100180006F064FF46F25C13C2F20003180006F06AFF0300B5
S1236F201A0046F25C13C2F20003D2184EF67823C0F20003100019000F231A0006F01AFFD3
S1236F4046F25C13C2F20003180006F052FF03009AB246F25C13C2F200031100180001F0A9
S1236F6051FE47F2D843C2F20003C8221A60C046BD4680BD976200208762002080B500AF03
S1236F8046F25C12C2F200024EF60023C0F2000303CB03C21B78137046F25C13C2F200036E
S1236FA00821180001F02EFE47F2D843C2F20003C8221A60C046BD4680BDB0B500AF46F26E
S1236FC05C12C2F200024EF62423C0F2000313CB13C21B88138046F25C13C2F200030D21D4
S1236FE0180001F00FFE47F2D843C2F20003C8221A60C046BD46B0BDB0B500AF46F25C12D8
S1237000C2F200024EF6E023C0F2000313CB13C21B88138046F25C13C2F200030D2118002D
S123702001F0F0FD47F2D843C2F2000340F22C121A60C046BD46B0BDB0B500AF46F25C1348
S1237040C2F200034EF6D022C0F2000213CA13C31188198092789A7046F25C13C2F2000334
S12370600E21180001F0CEFD47F2D843C2F20003C8221A60C046BD46B0BDB0B500AF46F2D8
S12370805C12C2F200024EF64423C0F2000313CB13C21B88138046F25C13C2F200030D21F3
S12370A0180001F0AFFDC046BD46B0BDB0B500AF46F25C12C2F200024EF65423C0F20003C1
S12370C013CB13C21B68136046F25C13C2F200030F21180001F096FDC046BD46B0BD80B52E
S12370E000AF46F25C12C2F200024EF66C33C0F2000303CB03C21B88138046F25C13C2F2C5
S123710000030921180001F07DFDC046BD4680BD80B582B000AF78600A00BB1C1A804EF6C8
S1237120C423C0F200037A681900100006F068FE03000BB1012300E000231800BD4602B095
S123714080BD80B582B000AF78600A00BB1C1A804EF60C33C0F200037A681900100006F04C
S12371604FFE03000BB1012300E000231800BD4602B080BDB0B500AFFFF7BCFD46F25C1265
S1237180C2F200024EF62433C0F2000313CB13C21B68136046F25C13C2F200030F21180096
S12371A001F030FD44F66A23C2F200030A221A8046F25913C2F2000300221A7047F2D8430E
S12371C0C2F20003C8221A60C046BD46B0BDFFFF90B583B000AF0200FB1D1A70FB1D1B78A6
S12371E0042B4BD89A002A4BD3181B689F4646F25C12C2F200024EF63433C0F2000313CB3D
S123720013C21B88138046F25C13C2F200030D21180001F0F7FC31E046F25C12C2F200026A
S12372204EF64433C0F2000313CB13C21B68136046F25C13C2F200030F21180001F0E2FCBC
S12372401CE046F25C13C2F200034EF65432C0F2000213CA13C303CA03C3118819809278D0
S12372609A7046F25C13C2F200031621180001F0C9FC03E0FFF733FF00E0C04647F2D84358
S1237280C2F20003C8221A60C046BD4603B090BD08EC000080B588B000AF78600A00FB1CBD
S12372A01A701E23FB1800221A801C23FB1800221A8046F25C13C2F2000300221A7046F2E0
S12372C05C13C2F20003180006F093FD03001A0046F25C13C2F20003D2184EF68833C0F2D0
S12372E00003100019000B231A0006F043FD0823FB1814220021180006F045FD05E01E21D7
S12373007B181A887B1801321A801E217B181B887A68D3181B78222B07D17B181B88013370
S12373207A68D3181B782B2B04D01E23FB181B88312BE4D91E217B181A887B1801321A80DB
S1237340FB1C1B7883B37B181B88312B15D90023B2E01E22BB181B88BA18591C11801A006C
S12373607B689A181C217B181B887918581C0880190012780823FB185A541E217B181B8870
