S015000070686C69706F726967696E616C2E737265639D
S1131900287C0020C9DA000021D80000D7DA0000C2
S1131910D7DA0000D7DA0000D7DA0000D7DA0000FF
S1131920000000000000000000000000D7DA000002
S1131930D7DA000000000000D7DA0000D7DA000090
S1131940019A00001D990000C59A0000199B00002F
S113195083D4000013BD0000C59A0000199B000049
S113196013BD00001D990000A5C7000091CE000022
S1131970019A00002DA800000000000095A80000B6
S113198033AF000000000000000000000000000071
S11319900000000000000000000000000000000043
S11319A00000000000000000000000000000000033
S11319B00000000000000000000000000000000023
S11319C0FFFFFFFFFFFFFFFFFFFFFFFFFFFFFFFF23
S1131E00680000000501230010B544F62034C2F236
S1131E100004237863B940F20003C0F200032BB13D
S1131E204FF24840C0F2000000E000BF01232370DD
S1131E3010BDC04640F20003C0F2000310B54BB120
S1131E4044F624314FF24840C2F20001C0F20000CF
S1131E5000E000BF10BDC04690B5C7B000AF7860C9
S1131E600A00B54B40F218115B18DB191A8040F2D6
S1131E701213FB1800221A804EF6E043C0F200034E
S1131E807A68190010000CF0C1F9030040F2141232
S1131E90B9180B60BB181B680BB9002348E140F26A
S1131EA01412BB181B680333BA181360A34B40F217
S1131EB018129B18DA1946F26033C2F200031000BC
S1131EC0190040F203131A000CF05AF90C23FB1802
S1131ED027332A22002118000CF05BF940F2121378
S1131EE0FB1800221A8057E040F21412BB181B683A
S1131EF01B785BB22C2B56D0BB181B681B785BB2CB
S1131F002E2B0BD0BB181B681B785BB2392B1DDC46
S1131F10BB181B681B785BB22F2B17DD40F2141122
S1131F207B181B685A1C79180A6040F21212BA18FE
S1131F30128800201856814B40F218115B18DB19E7
S1131F4027219B185B18021C1A701EE040F2141221
S1131F50BB181B681B785BB20A2B05D0BB181B6827
S1131F601B785BB20D2B07D140F21412BB181B680F
S1131F700133BA18136008E040F21413FB181B680D
S1131F80180001F095F90023D2E040F212117B18F9
S1131F901A887B1801321A8040F21213FB181B882E
S1131FA0102BA1D900E0C04640F21412BB181B68E4
S1131FB00133BA18136040F21213FB1800221A807E
S1131FC051E040F21412BB181B681B785BB22C2B37
S1131FD050D0BB181B681B785BB2392B1DDCBB18B7
S1131FE01B681B785BB22F2B17DD1100BB181B6815
S1131FF05A1C79180A6000229A5640F21213FB18F0
S11320001B88D0B24D4A40F218115218D2194B21F4
S1132010D3185B18021C1A701EE040F21412BB188D
S11320201B681B785BB20A2B05D0BB181B681B7896
S11320305BB20D2B07D140F21412BB181B6801339D
S1132040BA18136008E040F21413FB181B68180058
S113205001F02EF900236BE040F212117B181A886C
S11320607B1801321A8040F21213FB181B88052BCF
S1132070A7D900E0C04640F21412BB181B68013314
S1132080BA18136040F21213FB1800221A8041E0C0
S113209040F21413FB181B681B785BB22C2B1DD168
S11320A040F21213FB181B88244A40F2181012182D
S11320B0D2193721D3185B1800221A7046F2603304
S11320C0C2F200031D4A1218D2191800110040F27E
S11320D003131A000CF054F8012329E040F2141100
S11320E07B181B685A1C79180A6040F212143A19BA
S11320F0128800201856114B40F218115B18DB1996
S113210037219B185B18021C1A703B191A883B195B
S113211001321A8040F21213FB181B88132BB7D913
S113212040F21413FB181B68180001F0C1F80023D7
S11321301800BD4647B090BDEAFEFFFFF4FEFFFF66
S1132140F0B58DB000AFF8600A000A203B181A8081
S11321500E2108268B19DB193A1812881A808B195C
S1132160DA1944F64033C2F20003F868190000F0AB
S1132170B6FC0300002B01D100F03DFC16239B1993
S1132180DE1944F64033C2F20003180000F040FCAC
S113219003003380162308269B19DB191B88213B77
S11321A02A2B01D900F029FC9A00D84BD3181B68BC
S11321B09F4644F64033C2F20003BB61BB691B7AFD
S11321C0112B68D146F26033C2F200035A7A9C7A2A
S11321D024022243DC7A240422431C7B2406224367
S11321E010005A7B9C7B24022243DC7B2404224380
S11321F01B7C1B06134319003862796226230822CC
S11322009B18DB1902221A8026E0386A796A642254
S113221000230BF099FDD2B226250826AB19DB1951
S11322201C88100006F022FF03001A0044F6404305
S1132230C2F200031A55386A796A642200230BF04B
S113224083FD02000B003A627B62AB19DB191A882A
S1132250AB19DB1901321A80262308229B18DB19DB
S11322601B88052BD1D944F64043C2F20003002257
S11322701A7044F64043C2F2000300225A7044F636
S11322804043C2F200034B220621180000F09CFCDC
S1132290012300F0B6FBBB691B7A142B00D0AEE31C
S11322A046F26033C2F2000309331A7800210A406F
S11322B01A705A7800210A405A709A7800210A400C
S11322C09A70DA7800210A40DA701A7900210A40FB
S11322D01A715A7900210A405A719A7900210A40E8
S11322E09A71DA7900210A40DA7144F64033C2F275
S11322F00003BB61262308229B18DB1900221A80E5
S113230094E046F26033C2F200035A7A9C7A2402C3
S11323102243DC7A240422431C7B2406224310003B
S11323205A7B9C7B24022243DC7B240422431B7CB7
S11323301B0613431900642200230BF029FD02003D
S11323400B0014001D00262608217318DB191B88B6
S11323500833BA69D3189B7B333BDBB2180006F011
S1132360BBFE03003B6000237B603868796800197A
S1132370694146F26033C2F200030933FF2202408E
S113238015001A7800242240141C2A1C22431A70B7
S1132390020AFF24224015005A7800242240141C0B
S11323A02A1C22435A70020CFF24224015009A78FA
S11323B000242240141C2A1C22439A70050EDA7849
S11323C000242240141C2A1C2243DA70FF220A40F3
S11323D015001A7900242240141C2A1C22431A7165
S11323E00A0AFF24224015005A7900242240141CB2
S11323F02A1C22435A710A0CFF24224015009A79A0
S113240000242240141C2A1C22439A71080EDA79F3
S113241000210A40111C021C0A43DA7108217318B6
S1132420DB191A887318DB1901321A802623082253
S11324309B18DB191B88032B00D862E7012000F0EE
S113244067FE46F6A503C2F2000301221A700123B7
S1132450D7E246F26033C2F200035A789C78240231
S11324602243DC78240422431C79240622431000EE
S11324705A799C7924022243DC79240422431B7A6E
S11324801B061343190038627962262308229B181D
S1132490DB1900221A8026E0386A796A6422002354
S11324A00BF052FCD2B226250826AB19DB191C8886
S11324B0100006F0DBFD03001A0044F64043C2F2AC
S11324C000031A55386A796A642200230BF03CFC35
S11324D002000B003A627B62AB19DB191A88AB1954
S11324E0DB1901321A80262308229B18DB191B886A
S11324F0052BD1D944F64043C2F200032122062120
S1132500180000F061FB01237BE2C04604ED0000EB
S113251046F26033C2F2000301331A7800210A4004
S11325201A705A7800210A405A709A7800210A4099
S11325309A70DA7800210A40DA701A7900210A4088
S11325401A715A7900210A405A719A7900210A4075
S11325509A71DA7900210A40DA7144F64033C2F202
S11325600003BB61262308229B18DB1900221A8072
S113257096E046F26033C2F200035A789E7836023F
S11325803243DE78360432431E7936063243100075
S11325905A799E7936023243DE79360432431B7A05
S11325A01B0613431900642200230BF0F1FB020005
S11325B00B003A607B60262108200B18DB191B886E
S11325C00722D31ABA69D3189B7B333BDBB21800BA
S11325D006F082FD03001C000025386879680019A4
S11325E0694146F26033C2F200030133FF22024024
S11325F094461A7800263240161C624632431A70FA
S1132600020AFF26324094465A7800263240161CAD
S1132610624632435A70020CFF26324094469A783E
S113262000263240161C624632439A70020E9446CB
S1132630DA7800263240161C62463243DA70FF22F2
S11326400A4094461A7900263240161C62463243E8
S11326501A710A0AFF26324094465A7900263240FB
S1132660161C624632435A710A0CFF2632409446C5
S11326709A7900263240161C624632439A71080E3B
S1132680DA7900210A40111C021C0A43DA7126215E
S113269008200B18DB191A880B18DB1901321A8071
S11326A0262308229B18DB191B88052B00D860E71A
S11326B0012000F02DFD46F6A503C2F2000301221D
S11326C01A7001239DE144F64033C2F20003BB615A
S11326D0262308229B18DB1900221A801FE02620DB
S11326E008254319DB191B880233BA69D3189B7B6D
S11326F0333BD9B204004319DB191A8848B246F2B5
S11327006033C2F2000337219B185B18021C1A7055
S11327106319DB191A886319DB1901321A8026231D
S113272008229B18DB191B88132BD8D9002000F032
S1132730EFFC012365E1002000F0EAFC012360E1E5
S1132740002000F0E5FC01235BE1002000F0E0FC48
S1132750012356E144F64033C2F20003BB61262351
S113276008229B18DB1900221A801FE02620082566
S11327704319DB191B880233BA69D3189B7B333B9B
S1132780D9B204004319DB191A8848B246F26033FF
S1132790C2F2000327219B185B18021C1A706319EC
S11327A0DB191A886319DB1901321A8026230822DF
S11327B09B18DB191B880F2BD8D9002000F0A8FC2C
S11327C046F6A503C2F2000301221A70012318E1A0
S11327D044F64033C2F20003BB61262308229B184F
S11327E0DB1900221A801DE0262408256319DB1951
S11327F01B880233BA69D3189B7B6219D2191288D9
S1132800333BD8B246F26033C2F200034B219B182B
S11328105B18021C1A706319DB191A886319DB1917
S113282001321A80262308229B18DB191B88052BEA
S1132830DAD9002000F06CFC46F6A503C2F20003CE
S113284001221A700123DCE044F64043C2F2000383
S11328501E22002118000BF09CFC262308229B1842
S1132860DB1900221A801DE0262008240319DB1935
S11328701A8846F26033C2F2000337219B185B18B2
S1132880002159560319DB191A88C9B244F640438A
S1132890C2F2000399540319DB191A880319DB19CE
S11328A001321A80262308229B18DB191B88132B5C
S11328B0DAD944F64043C2F2000345221E2118002F
S11328C000F0D4FA01239CE044F64043C2F2000332
S11328D01E22002118000BF05CFC44F64043C2F2B7
S11328E0000346220F21180000F0C0FA012388E0FB
S11328F044F64043C2F200031E22002118000BF0EC
S113290048FC44F64043C2F2000347220F2118005A
S113291000F0ACFA012374E044F64043C2F2000331
S11329201E22002118000BF034FC44F64043C2F28E
S1132930000348220F21180000F098FA012360E0F8
S113294044F64043C2F200031E22002118000BF09B
S113295020FC2E4944F64043C2F200030F22180023
S11329600BF00EFC44F64043C2F2000349220F214F
S1132970180000F07BFA012343E044F64043C2F21E
S113298000031E22002118000BF003FC262308225A
S11329909B18DB1900221A801BE0262408256319E2
S11329A0DB1919886319DB191A8846F26033C2F2FD
S11329B000034B205B181B18197844F64043C2F2FD
S11329C0000399546319DB191A886319DB1901325E
S11329D01A80262308229B18DB191B88042BDCD9B8
S11329E044F64043C2F200034A220521180000F0D5
S11329F03DFA012305E0C04602E0C04600E0C046BF
S1132A0000231800BD460DB0F0BDC046876300200A
S1132A1080B584B000AF78607B68BB600E23FB1880
S1132A2000221A7050E00F23FB1800221A703EE0B7
S1132A300F217B181B780322D31ABA68D3189B7A08
S1132A40333BDAB244F63E33C2F200031A700E206E
S1132A503B181B789A007B181B78D2184EF6B033BB
S1132A60C0F200039A5C44F63E33C2F200031B78C2
S1132A709A420CD03B181B789A007B181B78D2180A
S1132A804EF6B033C0F200039B5CFF2B15D10F232D
S1132A90FB181B78032B04D10E23FB181B789BB265
S1132AA019E00F217B181A787B1801321A700F2352
S1132AB0FB181B78032BBBD900E0C0460E217B1802
S1132AC01A787B1801321A700E23FB181B784B2BD3
S1132AD0A9D94FF6FF731800BD4604B080BD80B578
S1132AE088B000AFF860B9607A601723FB18002241
S1132AF01A701E23FB1800221A800EE01E217B1878
S1132B001B88FA68D318BB61BB691B78682B0AD091
S1132B107B181A887B1801321A801E23FB181B8825
S1132B20FE2BEBD900E0C0461E23FB181B88FE2BAE
S1132B3001D9002344E01E23FB1800221A8010E070
S1132B401E203B181B88BA69D31819781722BB18A2
S1132B50BA1812788A181A703B181A883B1801326E
S1132B601A801E23FB181A88BB695B7A0A339A42BF
S1132B70E6D3BB695B7A0A33BA69D3181B78172288
S1132B80BA1812789A4201D0002319E0BB695B7A23
S1132B900B33BA69D3181B78162B01D000230FE02E
S1132BA0BB695B7A9BB20C339AB27B681A807B68F0
S1132BB01B881A00B969BB6818000BF0E1FA0123FD
S1132BC01800BD4608B080BDF0B5C9B000AF78604C
S1132BD008001100A24B40F220141B19DB19021C3F
S1132BE01A70A04B1B19DB190A1C1A7040F21D1332
S1132BF0FB1800221A700C23FB1840F20C117A18EF
S1132C0013607B181B6868221A707B181B68682283
S1132C10DA717B181B6891221A7246F26033C2F291
S1132C2000035A789C7824022243DC78240422434B
S1132C301C792406224310005A799C7924022243E9
S1132C40DC79240422431B7A1B061343190040F247
S1132C501013FB181860596040F21E13FB18002271
S1132C601A8029E040F210157B191868596864220B
S1132C7000230BF069F8D2B240F21E16BB191C886F
S1132C80100006F0F3F903001A0040F20C13FB18CD
S1132C901B681B195A707B19186859686422002331
S1132CA00BF052F802000B0079190A604B60BB1953
S1132CB01A88BB1901321A8040F21E12BB181B88F5
S1132CC0052BCFD9BB1800221A8033E0654B40F2A4
S1132CD020129B18DB191B789A0040F21E103B1837
S1132CE01B88D1183B181B880322D21A4EF6B03326
S1132CF0C0F20003595C40F20C143B191B689B188A
S1132D000A1C9A723B181B880322D31A3A191268B8
S1132D10D3189A7A3B181B880321CB1A3332D1B2C9
S1132D203A191268D3180A1C9A723B181A883B186D
S1132D3001321A8040F21E117B181B88032BC5D95F
S1132D40474B40F220129B18DB191B780433DAB28C
S1132D5040F20C13FB181B685A727B1800221A806D
S1132D6016E040F21E103B181B887A68D3181A78B4
S1132D703B181B883332D1B240F20C12BA181268D5
S1132D80D3180A1C9A733B181A883B1801321A800C
S1132D90334B40F220129B18DB191B789BB240F294
S1132DA01E117A1812889A42DBD37B1800221A80EB
S1132DB015E040F21E103B181B882B4A40F22011EC
S1132DC05218D219D15C40F21D12BB18BA181278ED
S1132DD08A181A703B181A883B1801321A8040F27C
S1132DE01E13FB181A881E4B40F220115B18DB19C6
S1132DF01B780E339A42DCD3194B5B18DB191B7812
S1132E0040F20C103A181268D31840F21D12BA1886
S1132E1012789A73124B5B18DB191B7801333A183A
S1132E201268D31816229A730D4B5B18DB191B78A2
S1132E309BB210339AB244F63C33C2F200031A80B8
S1132E4044F63C33C2F200031A880C23FB18110029
S1132E50180006F0F4F8C046BD4649B0F0BDC046BF
S1132E60E3FEFFFFE2FEFFFFECFEFFFFF0B5C9B09B
S1132E7000AF786008001100A24B40F220141B1927
S1132E80DB19021C1A70A04B1B19DB190A1C1A70DF
S1132E9040F21D13FB1800221A700C23FB1840F299
S1132EA00C117A1813607B181B6868221A707B183F
S1132EB01B686822DA717B181B6881221A7246F239
S1132EC06033C2F200035A789C7824022243DC78EF
S1132ED0240422431C792406224310005A799C7945
S1132EE024022243DC79240422431B7A1B06134365
S1132EF0190040F21013FB181860596040F21E13B9
S1132F00FB1800221A8029E040F210157B1918687A
S1132F105968642200230AF017FFD2B240F21E1649
S1132F20BB191C88100006F0A1F803001A0040F237
S1132F300C13FB181B681B195A707B191868596805
S1132F40642200230AF000FF02000B0079190A60D2
S1132F504B60BB191A88BB1901321A8040F21E1249
S1132F60BB181B88052BCFD9BB1800221A8034E06C
S1132F70654B40F220129B18DB191B789A0040F233
S1132F801E103B181B88D318991C3B181B88012260
S1132F90D21A4EF6B033C0F20003595C40F20C145E
S1132FA03B191B689B180A1C9A723B181B88012248
S1132FB0D31A3A191268D3189A7A3B181B8801213C
S1132FC0CB1A3332D1B23A191268D3180A1C9A7246
S1132FD03B181A883B1801321A8040F21E117B18E4
S1132FE01B88012BC4D9474B40F220129B18DB19D4
S1132FF01B780233DAB240F20C13FB181B685A72C6
S11330007B1800221A8016E040F21E103B181B8821
S11330107A68D3181A783B181B883332D1B240F23D
S11330200C12BA181268D3180A1C1A733B181A889F
S11330303B1801321A80334B40F220129B18DB19E3
S11330401B789BB240F21E117A1812889A42DBD385
S11330507B1800221A8015E040F21E103B181B88D2
S11330602A4A40F220115218D219D15C40F21D12A2
S1133070BB18BA1812788A181A703B181A883B18A9
S113308001321A8040F21E13FB181A881D4B40F2BD
S113309020115B18DB191B780C339A42DCD3194BD3
S11330A05B18DB191B7840F20C103A181268D3181D
S11330B040F21D12BA1812781A73124B5B18DB19FE
S11330C01B7801333A181268D31816221A730D4B61
S11330D05B18DB191B789BB20E339AB244F63C336F
S11330E0C2F200031A8044F63C33C2F200031A8889
S11330F00C23FB181100180005F0A1FFC046BD46C3
S113310049B0F0BDE3FEFFFFE2FEFFFFECFEFFFF70
S1133110F0B5C9B000AF0200634B40F220101B1899
S1133120DB191A7040F21D13FB1800221A700C23CD
S1133130FB1840F20C117A1813607B181B68682284
S11331401A707B181B686822DA71574B1B18DB193D
S11331501B7823B17B181B6894221A7205E040F295
S11331600C13FB181B6884221A7246F26033C2F2F5
S113317000035A789C7824022243DC7824042243F6
S11331801C792406224310005A799C792402224394
S1133190DC79240422431B7A1B061343190040F2F2
S11331A01013FB181860596040F21E13FB1800221C
S11331B01A8029E040F210157B19186859686422B6
S11331C000230AF0C1FDD2B240F21E16BB191C88BE
S11331D0100005F04BFF03001A0040F20C13FB181B
S11331E01B681B195A707B191868596864220023DC
S11331F00AF0AAFD02000B0079190A604B60BB19A2
S11332001A88BB1901321A8040F21E117B181B88E0
S1133210052BCFD940F20C13FB181B6800225A72FD
S11332207B1800221A8015E040F21E103B181B8800
S11332301E4A40F220115218D219D15C40F21D12DC
S1133240BB18BA1812788A181A703B181A883B18D7
S113325001321A8040F21E13FB181B88092BE3D994
S1133260124B40F220115B18DB1940F21D12BA1800
S113327012789A720D4B5B18DB191622DA7244F637
S11332803C33C2F200030C221A8044F63C33C2F2EF
S113329000031A880C23FB181100180005F0CFFE58
S11332A0C046BD4649B0F0BDE7FEFFFFECFEFFFFA0
S11332B090B591B000AF78604EF6E443C0F20003DD
S11332C00C243A19190010000AF06CFF7B6846338D
S11332D000221A707A683B19110018000AF082FF64
S11332E0391947F2D063C2F200035022180006F0E5
S11332F087F940F2E83140F2F4100AF0FFF9C046D1
S1133300BD4611B090BDFFFFF0B5D7B000AF7860F7
S11333100022002340F2501179180A604B601021FA
S11333207B1840F24812BA1813600E23FA18791861
S11333307B68180000F098FD0300002B01D100F019
S11333408DFD44F63F53C2F200031B78042B10D0CA
S113335001DD00F07FFD032B00D183E101DD00F0EE
S113336079FD012B00D10EE1022B00D102E200F025
S113337071FD1023FB18180001F075FF0300032BE7
S113338002D0062B0AD0FBE047F2E853C2F2000356
S113339041F288321A60012300F061FD40F24813C3
S11333A0FB181B68133340F24412BA18136000224E
S11333B0002340F2501179180A604B6040F24F1319
S11333C0FB1800221A702DE06422002340F25016EC
S11333D0B919086849680AF0DBFC02000B00B91946
S11333E00A604B6040F24F117B181B780522D31AF8
S11333F040F24412BA181268D35C180005F06CFE4F
S113340003001C000025BB191A685B6812196B4184
S1133410B8190260436040F24F117B181A787B1888
S113342001321A7040F24F13FB181B78052BCBD9CD
S113343046F26033C2F200035A789C782402224395
S1133440DC78240422431C792406224310005A7990
S11334509C7924022243DC79240422431B7A1B0630
S11334601343190040F25013FB181B68834205D123
S113347040F25413FB181B688B4262D046F260334F
S1133480C2F20003013340F25012BA1810781A78CD
S113349000210A40111C021C0A431A7040F2511206
S11334A0BA1810785A7800210A40111C021C0A43E9
S11334B05A7040F25212BA1810789A7800210A40D1
S11334C0111C021C0A439A7040F25312BA18107865
S11334D0DA7800210A40111C021C0A43DA7040F217
S11334E05412BA1810781A7900210A40111C021CCF
S11334F00A431A7140F25512BA1810785A79002109
S11335000A40111C021C0A435A7140F25612BA189E
S113351010789A7900210A40111C021C0A439A71FE
S113352040F25712BA181078DA7900210A40111CB7
S1133530021C0A43DA7146F6A503C2F20003012213
S11335401A7040F24413FB181B689B7933B947F295
S1133550E853C2F200031E221A6006E047F2E85361
S1133560C2F2000341F288321A6000F010FF44F600
S11335703F53C2F2000302221A70012300F06FFCD1
S1133580002300F06CFC1023FB18180001F06BFE04
S11335900300032B3BD140F24813FB181B68133381
S11335A040F21012B9180B60BB181B681B78A3B942
S11335B000220021002000F0ADFD47F2E853C2F2E2
S11335C0000341F288321A6044F63F53C2F200030A
S11335D002221A70012300F042FC40F21013FB187F
S11335E01B681B78042B0FD147F2E853C2F2000387
S11335F041F288321A6044F63F53C2F200030422B7
S11336001A70012300F02BFC002300F028FC102387
S1133610FB18180001F027FE0300042B01D000F072
S11336201BFC40F24813FB181B68133340F21012C2
S1133630B9180B60BB181B681B78042B0FD147F219
S1133640E853C2F2000341F288321A6044F63F5351
S1133650C2F2000304221A70012300F000FC0023CC
S113366000F0FDFB1023FB18180001F0FCFD030023
S1133670042B02D0162B09D07AE047F2E853C2F2A9
S113368000031E221A60012300F0E9FB40F24813F4
S1133690FB181B68133340F240143A19136046F2C6
S11336A06033C2F2000301225A743B191B689B78F1
S11336B0180005F011FD030059B246F26033C2F25E
S11336C000035B2299543B191B685B78180005F0D2
S11336D003FD030059B246F26033C2F200035A22DA
S11336E099543B191B681B78180005F0F5FC03007E
S11336F059B246F26033C2F20003592299543B197D
S11337001B681033180001F0E6FD3B191B68180014
S113371001F025FE3B191B680633180001F094FEE6
S11337203B191B681B7B180001F044FF3B191B6805
S11337300D33180001F05CFF3B191B681B7D33B986
S113374047F2E853C2F200031E221A600EE047F269
S1133750E853C2F2000341F288321A6000F017FE07
S113376044F63F53C2F2000302221A70012376E3A7
S1133770002374E31023FB18180001F074FD030008
S1133780033B112B00D961E39A00D94BD3181B6872
S11337909F4640F24813FB181B68133340F234145D
S11337A03A191360002005F096F846F6A603C2F213
S11337B0000301221A703B191B681B7833B947F2C6
S11337C0E853C2F200031E221A6006E047F2E853EF
S11337D0C2F2000341F288321A6000F0D8FD0123DE
S11337E03DE340F24813FB181B68133340F21C14EA
S11337F03A1913603B191B68180001F0B0FD3B191E
S11338001B689B7933B947F2E853C2F200031E22C6
S11338101A6006E047F2E853C2F2000341F288322C
S11338201A6000F0B4FD012319E340F24813FB18B9
S11338301B68133340F214143A1913603B191B68C4
S1133840180001F08CFD2200BB181B689B798BB11A
S1133850BB181B689B799BB200221900002000F062
S113386059FC47F2E853C2F2000341F288321A606D
S11338700123F4E240F21413FB181B68DB7933B91B
S113388047F2E853C2F200031E221A6006E047F230
S1133890E853C2F2000341F288321A6000F077FD67
S11338A00123DCE240F24813FB181B68133340F297
S11338B03412B9180B60BB181B681B7833B947F274
S11338C0E853C2F200031E221A6006E047F2E853EE
S11338D0C2F2000341F288321A6000F058FDB8E2E7
S11338E040F24813FB181B68133340F244143A198E
S11338F013603B191B68180001F0A6FD3B191B68F7
S11339009B7933B947F2E853C2F200031E221A60CE
S113391006E047F2E853C2F2000341F288321A602B
S113392000F035FD01239AE240F24813FB181B68AE
S1133930133340F21812B9180B60BB181B681B79BB
S113394033B947F2E853C2F200031E221A6006E0BC
S113395047F2E853C2F2000341F288321A600120B0
S113396000F01FFE01237AE240F24813FB181B68A3
S1133970133340F228143A1913603B191B681800DA
S113398001F0A9FC3B191B681B7933B947F2E853D2
S1133990C2F200031E221A6006E047F2E853C2F2A4
S11339A0000341F288321A6000F0F1FC012356E270
S11339B040F24813FB181B68133340F224143A19DD
S11339C013603B191B68180001F012FE3B191B68B9
S11339D0DB7833B947F2E853C2F200031E221A60BF
S11339E006E047F2E853C2F2000341F288321A605B
S11339F000F0CDFC012332E240F24813FB181B68AF
S1133A00133340F220143A1913603B191B681B78D6
S1133A10180001F0CFFD3B191B685B7833B947F2FE
S1133A20E853C2F200031E221A6006E047F2E8538C
S1133A30C2F2000341F288321A6000F0A8FC0123AC
S1133A400DE240F24813FB181B68133340F23414A0
S1133A503A19136000F0E2FF3B191B681B7833B975
S1133A6047F2E853C2F200031E221A60F1E147F262
S1133A70E853C2F2000341F288321A60E9E140F2ED
S1133A804813FB181B68133340F230143A191360BF
S1133A903B191B681A000221012000F03BFB3B1973
S1133AA01B68DB7833B947F2E853C2F200031E22E5
S1133AB01A6006E047F2E853C2F2000341F288328A
S1133AC01A600123CBE140F24813FB181B6813333F
S1133AD040F22C12B9180B60BB181B681B784BB949
S1133AE047F2E853C2F200031E221A6009E0C046FE
S1133AF0E8ED000047F2E853C2F2000341F28832D5
S1133B001A6000220121002000F004FB0123A6E139
S1133B1040F24813FB181B68133340F23C117A1827
S1133B2013607B181B681A785B781B0213439BB2E3
S1133B30002B00D08BE00D007B191B689A7844F6AB
S1133B404063C2F200031A707B191B68D91C44F647
S1133B504063C2F2000301229B18032218000AF0FA
S1133B600FFB7B191B680833190044F64063C2F24B
S1133B70000306229B18032218000AF001FB7B199C
S1133B801B68DA7A1B7B1B0213439AB244F6406328
S1133B90C2F200030F33FF2111400C0019780020FA
S1133BA00140081C211C01431970120A90B25A7872
S1133BB000210A40111C021C0A435A7004F0B2FF8F
S1133BC044F64063C2F2000309331A7800210A4024
S1133BD0111C01220A431A705A7800210A405A70B3
S1133BE044F64063C2F200030B331A7800210A4002
S1133BF01A705A7800210A405A709A7800210A40B3
S1133C009A70DA7800210A40DA707B191B689A7975
S1133C10DB791B0213439AB244F64063C2F20003F9
S1133C209A807B191B685B7B33B947F2E853C2F275
S1133C3000031E221A6006E047F2E853C2F20003B2
S1133C4041F288321A6001F0FFF9012307E140F2E2
S1133C504813FB181B68133340F238157A191360A4
S1133C607B191B681A785B781B0213439AB244F6DB
S1133C704063C2F200039B681B021B0C9BB29A4276
S1133C8000D0C6E044F64063C2F200039B681B0206
S1133C901B0C9BB201339AB244F64063C2F2000398
S1133CA00933FF2111400C00197800200140081C41
S1133CB0211C01431970120A90B25A7800210A405B
S1133CC0111C021C0A435A7044F64063C2F20003FA
S1133CD0DA7ADB681B021B0A1B02134319007B19E7
S1133CE01B689A78DB781B0213439BB2CA1844F60C
S1133CF04063C2F200030B33FF2111400C0019781A
S1133D0000200140081C211C01431970110AFF20E6
S1133D1001400C00597800200140081C211C01437B
S1133D205970110CFF2001400C00997800200140CB
S1133D30081C211C01439970100EDA7800210A40F6
S1133D40111C021C0A43DA707B191B689A78DB7811
S1133D501B0213439BB21A007B191B68043319001E
S1133D60100004F0ECFE7B191B681A785B781B02C8
S1133D7013439BB25A1C44F64063C2F200039B797E
S1133D80190044F64063C2F20003DB799BB21B02C4
S1133D909BB2CB189A4227D17B191B681A785B789F
S1133DA01B0213439BB219004FF6FF7001F008F891
S1133DB040F2E83140F6B83009F0A0FC46F6C823DA
S1133DC0C2F2000359221A6046F6C823C2F2000365
S1133DD0180001F082FD40F2E83140F2E83009F0C9
S1133DE08DFC04F028FF28E044F64063C2F200038F
S1133DF09B681B021B0C98B240F23813FB181B681B
S1133E001A785B781B0213439BB2190000F0D8FFA9
S1133E1013E044F64063C2F200039B681B021B0CD0
S1133E2098B240F23813FB181B681A785B781B02AF
S1133E3013439BB2190000F0C3FF47F2E853C2F2E8
S1133E40000341F288321A60012308E0002306E0EF
S1133E50C04602E0C04600E0C04600E0002318006F
S1133E60BD4657B0F0BDC04690B589B000AFF8600C
S1133E70B9607A601423FB1800221A801723FB18F8
S1133E8000221A701E23FB1800221A8015E01E243B
S1133E903B191B88FA68D318BB614EF6E453C0F291
S1133EA00003B869022219000AF05CF9030053B157
S1133EB03B191A883B1901321A801E23FB181B88F0
S1133EC0FE2BE4D900E0C0461E23FB181B88FE2B02
S1133ED001D900235EE0BB691B79682B11D0BB6953
S1133EE0DB7A682B0DD0BB699B7C5A1C1423FB180E
S1133EF01B88D318BA69D318DB7C162B01D0002396
S1133F0048E01E23FB1800221A8010E01E203B18F4
S1133F101B88BA69D31819781722BB18BA181278F3
S1133F208A181A703B181A883B1801321A801E230B
S1133F30FB181A88BB699B7C190014203B181B884A
S1133F40CB1813339A42E1D3BB699B7C1A003B180C
S1133F501B88D3181333BA69D3181B781722BA18DD
S1133F6012789A4201D0002314E0BB699B7C9AB278
S1133F701423FB181B88D3189BB215339AB27B68A1
S1133F801A807B681B881A00B969BB6818000AF09C
S1133F90F7F801231800BD4609B090BDB0B586B04E
S1133FA000AF002200233A617B610E23FB1800223C
S1133FB01A7047F2E853C2F2000341F288321A60E1
S1133FC044F65463C2F20003BB60BB6813337B60E6
S1133FD0BA684EF6E053C0F200031000190004233F
S1133FE01A000AF0CDF8BB6868221A71BB6868220F
S1133FF0DA72BB6805330622AA2118000AF0C9F850
S113400046F26033C2F200035A7A9C7A24022243B5
S1134010DC7A240422431C7B2406224310005A7BAE
S11340209C7B24022243DC7B240422431B7C1B064E
S113403013431900386179610F23FB1800221A70A9
S113404020E0386979696422002309F07DFED2B248
S11340500F257B191C78100005F008F803001A00DE
S1134060BB681B191A73386979696422002309F043
S11340706BFE02000B003A617B617B191A787B1995
S113408001321A700F217B181B78032BD9D9BB6816
S113409000221A74BB6801225A74BB6801229A7404
S11340A07B6816229A7041F60063C0F200031B6815
S11340B0DAB27B681A707B1800221A7010E00F20A5
S11340C03B181B78BA68D31819780E22BB18BA1893
S11340D012788A181A703B181A783B1801321A7031
S11340E00F23FB181A78BB689B7C13339A42E6D3E0
S11340F07B680E22BA1812785A7044F65463C2F2DE
S113410000031621180004F083FF01231800BD46A4
S113411006B0B0BDB0B58AB000AF3A60FB1D021C5A
S11341201A703B1D0A1C1A8000237B612623FB188E
S113413000221A7047F2E853C2F2000341F28832B7
S11341401A6044F65473C2F200033B613B691333B3
S1134150FB603A694EF6E053C0F200031000190008
S113416004231A000AF00CF846F26033C2F200038A
S11341705A789C7824022243DC78240422431C7954
S11341802406224310005A799C7924022243DC79C4
S1134190240422431B7A1B0613431900B861F961F6
S11341A03B6968221A713B696822DA722723FB187B
S11341B000221A7020E0B869F9696422002309F02A
S11341C0C3FDD2B227257B191C78100004F04EFFE2
S11341D003001A003B691B195A71B869F969642212
S11341E0002309F0B1FD02000B00BA61FB617B19E9
S11341F01A787B1901321A7027257B191B78052B35
S1134200D9D946F26033C2F200035A7A9C7A240266
S11342102243DC7A240422431C7B2406224310001C
S11342205A7B9C7B24022243DC7B240422431B7C98
S11342301B0613431900B861F9617B1900221A7037
S113424020E0B869F9696422002309F07DFDD2B247
S113425027257B191C78100004F008FF03001A00BE
S11342603B691B191A73B869F9696422002309F0C0
S11342706BFD02000B00BA61FB617B191A787B1994
S113428001321A702723FB181B78032BD9D93B1D45
S11342901B8813B1012B07D00DE03B690A221A7465
S11342A03B6900225A740DE03B69D2221A743B69BF
S11342B001225A7406E03B69D2221A743B69022235
S11342C05A74C0463B1D1B8823B13B1D1A883B1DF5
S11342D0013A1A803B6942229A74FB6843221621F0
S11342E09954FB1D1B7883B1FA683B6811001800D0
S11342F001F00DFF03007B617B69BBB1FB684222C7
S11343000021180009F045FF10E0FA683B1D1B88E6
S11343101100180001F03FFF03007B617B692BB1A2
S1134320FB6842220021180009F033FF2723FB1801
S113433000221A7010E027203B181B783A69D31822
S113434019782622BB18BA1812788A181A703B18E2
S11343501A783B1801321A702723FB181A783B6924
S11343609B7C13339A42E6D3FB682622BA18422177
S113437012785A5444F65473C2F2000357211800B9
S113438004F046FE00231800BD460AB0B0BDB0B527
S113439086B000AF1623FB1800221A7045F25403AE
S11343A0C2F200037B607B6813333B607A684EF68D
S11343B0E053C0F200031000190004231A0009F0AE
S11343C0DFFE46F26033C2F200035A789C7824027E
S11343D02243DC78240422431C792406224310005F
S11343E05A799C7924022243DC79240422431B7ADF
S11343F01B0613431900B860F9607B6868221A71C0
S11344007B686822DA727B6801221A747B68FF2257
S11344105A747B6802229A743B681622DA703B68ED
S113442000225A703B6800221A7046F26033C2F2CE
S113443000035A789C7824022243DC782404224323
S11344401C792406224310005A799C7924022243C1
S1134450DC79240422431B7A1B0613431900B86039
S1134460F9601723FB1800221A7020E0B868F96875
S11344706422002309F068FCD2B217257B191C784A
S1134480100004F0F3FD03001A007B681B195A7135
S1134490B868F9686422002309F056FC02000B0096
S11344A0BA60FB607B191A787B1901321A701725E0
S11344B07B191B78052BD9D946F26033C2F200036D
S11344C05A7A9C7A24022243DC7A240422431C7BF9
S11344D02406224310005A7B9C7B24022243DC7B6B
S11344E0240422431B7C1B0613431900B860F960A3
S11344F07B1900221A7020E0B868F968642200234E
S113450009F022FCD2B217257B191C78100004F0A4
S1134510ADFD03001A007B681B191A73B868F968AB
S11345206422002309F010FC02000B00BA60FB6057
S11345307B191A787B1901321A701722BB181B7861
S1134540032BD9D9BB1800221A7010E017203B188E
S11345501B787A68D31819781622BB18BA181278FF
S11345608A181A703B181A783B1801321A701723EC
S1134570FB181A787B689B7C13339A42E6D33B681A
S11345801622BA1812789A7045F25403C2F2000344
S11345901721180004F03CFD01231800BD4606B0A5
S11345A0B0BDB0B588B000AF0200FB1D1A701E2369
S11345B0FB1800221A7045F25413C2F20003FB6088
S11345C0FB681333BB60FA684EF6E053C0F2000395
S11345D01000190004231A0009F0D2FD46F26033DA
S11345E0C2F200035A789C7824022243DC78240423
S11345F022431C792406224310005A799C79240210
S11346002243DC79240422431B7A1B06134319003A
S113461038617961FB6868221A71FB686822DA7272
S1134620FB6802221A74FB68FF225A74FB68022298
S11346309A74BB681622DA70BB6800225A70BB6891
S1134640FA1D12781A7046F26033C2F200035A78E7
S11346509C7824022243DC78240422431C79240617
S1134660224310005A799C7924022243DC792404E1
S113467022431B7A1B0613431900386179611F23F7
S1134680FB1800221A7020E038697969642200233B
S113469009F05AFBD2B21F257B191C78100004F0D4
S11346A0E5FC03001A00FB681B195A713869796923
S11346B06422002309F048FB02000B003A617B618D
S11346C07B191A787B1901321A701F257B191B7804
S11346D0052BD9D946F26033C2F200035A7A9C7A88
S11346E024022243DC7A240422431C7B2406224332
S11346F010005A7B9C7B24022243DC7B240422434B
S11347001B7C1B0613431900386179617B19002255
S11347101A7020E0386979696422002309F014FBD7
S1134720D2B21F257B191C78100004F09FFC0300F3
S11347301A00FB681B191A7338697969642200230B
S113474009F002FB02000B003A617B617B191A78C5
S11347507B1901321A701F22BB181B78032BD9D97D
S1134760BB1800221A7010E01F203B181B78FA684F
S1134770D31819781E22BB18BA1812788A181A701E
S11347803B181A783B1801321A701F23FB181A7849
S1134790FB689B7C13339A42E6D3BB681E22BA188B
S11347A012789A7045F25413C2F2000317211800CC
S11347B004F02EFC01231800BD4608B0B0BDFFFF75
S11347C0B0B5C4B000AF46F26033C2F200035B7C04
S11347D043B9FFF7E3FB44F63F53C2F2000303225D
S11347E01A7016E140F20E13FB1800221A703B00F7
S11347F0FC243A19136044F63F53C2F20003012229
S11348001A7047F2E853C2F2000341F288321A6088
S11348103B191A684EF6E053C0F200031000190069
S113482004231A0009F0ACFC21007B181B686822E1
S11348301A717B181B686822DA727B181B680022C5
S11348401A747B181B6801225A747B181B68012296
S11348509A7441F60063C0F200031B68DAB27B1855
S11348601B68DA7446F26033C2F200035A789C780B
S113487024022243DC78240422431C7924062243A4
S113488010005A799C7924022243DC7924042243BF
S11348901B7A1B06134319007B1CFF3318605960F5
S11348A040F20F13FB1800221A7029E07B1CFF331F
S11348B0186859686422002309F046FAD2B240F21B
S11348C00F157B191C78100004F0D0FB03001A00AC
S11348D0FC23FB181B681B195A717B1CFF331868D7
S11348E059686422002309F02FFA02000B00791C96
S11348F0FF310A604B607B191A787B1901321A70F8
S113490040F20F157B191B78052BCFD946F2603383
S1134910C2F200035A7A9C7A24022243DC7A2404E9
S113492022431C7B2406224310005A7B9C7B2402D6
S11349302243DC7B240422431B7C1B061343190003
S11349407B1CFF33186059607B1900221A7029E020
S11349507B1CFF33186859686422002309F0F4F9BA
S1134960D2B240F20F157B191C78100004F07EFBC4
S113497003001A00FC23FB181B681B191A737B1C09
S1134980FF33186859686422002309F0DDF9020036
S11349900B00791CFF310A604B607B191A787B1974
S11349A001321A7040F20F12BB181B78032BCFD9B7
S11349B0BB1800221A7015E040F20F103B181B7848
S11349C0154A40F210115218D219D15C40F20E125D
S11349D0BB18BA1812788A181A703B181A783B1840
S11349E001321A7040F20F13FB181B78132BE3D912
S11349F0FC217B181B6840F20E12BA1812781A7543
S1134A007B181B6816225A753B001621180004F007
S1134A10FFFABD4644B0B0BDF0FEFFFFB0B590B0A4
S1134A2000AF3E23FB1800221A7044F64453C2F22E
S1134A300003BB6247F2E853C2F2000341F288323A
S1134A401A60BA6A4EF6E053C0F20003100019006F
S1134A5004231A0009F094FBBB6A68221A71BB6A2A
S1134A606822DA72BB6AD1221A74BB6A00225A74B1
S1134A70BB6A1F229A7441F60063C0F200031B68EC
S1134A80D9B2BB6A2322995446F26033C2F20003BE
S1134A905A789C7824022243DC78240422431C792B
S1134AA02406224310005A799C7924022243DC799B
S1134AB0240422431B7A1B061343190038637963C9
S1134AC03F23FB1800221A7029E0386B796B6422AB
S1134AD0002309F039F9D2B23F257B191C78100064
S1134AE004F0C4FA03001A00BB6A1B195A717B193B
S1134AF01B78BA6A12195179BA6AD3180A1CDA7582
S1134B00386B796B6422002309F01EF902000B0054
S1134B103A637B637B191A787B1901321A703F253B
S1134B207B191B78052BD0D946F26033C2F20003FF
S1134B305A7A9C7A24022243DC7A240422431C7B82
S1134B402406224310005A7B9C7B24022243DC7BF4
S1134B50240422431B7C1B06134319003863796326
S1134B607B1900221A7029E0386B796B64220023C8
S1134B7009F0EAF8D2B23F257B191C78100004F042
S1134B8075FA03001A00BB6A1B191A737B191B7888
S1134B90BA6A1219117BBA6AD3180A1CDA74386B10
S1134BA0796B6422002309F0CFF802000B003A630A
S1134BB07B637B191A787B1901321A703F243B19E5
S1134BC01B78032BD0D93A0047F26463C2F2000386
S1134BD01100180005F05AFA3B005B69DBB21800BB
S1134BE004F044FA03001A00BB6A5A773B001B69BD
S1134BF0DBB2180004F03AFA03001A00BB6A9A7791
S1134C003B00DB68DBB2180004F030FA03001A0042
S1134C10BB6ADA773B009B68DBB2180004F026FA23
S1134C2003001900BB6A202299543B005B68DBB285
S1134C30180004F01BFA03001900BB6A21229954DE
S1134C403B001B68DBB2180004F010FA03001900E3
S1134C50BB6A2222995446F26033C2F200035D22F9
S1134C609A5C5E21595C09020A435F21595C09047C
S1134C700A4360215B5C1B061343FB623B19002261
S1134C801A701FE0FB6A6422B3FBF2F264214A4308
S1134C909B1ADAB23F257B191C78100004F0E6F960
S1134CA003001900BB6A28221B199B180A1C1A70DE
S1134CB0FB6A6422B3FBF2F3FB627B191A787B195B
S1134CC001321A703F22BB181B78032BDAD93B4BF5
S1134CD07B62BB1800221A7017E03F257B191B78F2
S1134CE07A6AD3181A787B191C78100004F0BEF97C
S1134CF003001900BB6A25221B199B180A1C1A7091
S1134D007B191A787B1901321A703F243B191B78DE
S1134D10022BE2D9BB6A2C3303220021180009F0CC
S1134D2038FABB6A2F2207219954BB6A3022022128
S1134D309954BB6A31220021995446F26033C2F27D
S1134D40000358229B5C180004F090F9030019003A
S1134D50BB6A242299543B1900221A7012E03F20A6
S1134D603B181A7844F64453C2F20003995C3E227D
S1134D70BB18BA1812788A181A703B181A783B189C
S1134D8001321A703F23FB181B78312BE7D9BB6A19
S1134D903E22BA18322112785A54BB6A33221621A1
S1134DA0995444F64453C2F200033421180004F029
S1134DB02FF9C046BD4610B0B0BDC046B563002053
S1134DC0B0B588B000AF0200BB1D1A803B1D0A1CA1
S1134DD01A801E23FB1800221A7044F64453C2F2B0
S1134DE00003FB6047F2E853C2F2000341F2883249
S1134DF01A60FA684EF6E053C0F20003100019007E
S1134E0004231A0009F0BCF9FB6868221A71FB68D4
S1134E106822DA72FB68DF221A74FB6800225A7473
S1134E20FB6809229A74FB680022DA76FB68012287
S1134E305A75FB683A1D1333147819780020014021
S1134E40081C211C0143197050785A7800210A402B
S1134E50111C021C0A435A70FB68BA1D1478997D10
S1134E6000200140081C211C014399755078DA7D0B
S1134E7000210A40111C021C0A43DA7544F64063FF
S1134E80C2F20003DA7ADB681B021B0A1B0213431B
S1134E901B0CDAB2FB689A7644F64063C2F2000354
S1134EA0DA7ADB681B021B0A1B0213431B0ADAB201
S1134EB0FB685A7644F64063C2F20003DA7ADB6890
S1134EC01B021B0A1B021343DAB2FB681A7646F272
S1134ED06033C2F200035A789C7824022243DC78BF
S1134EE0240422431C792406224310005A799C7915
S1134EF024022243DC79240422431B7A1B06134335
S1134F001900386179611F23FB1800221A7020E010
S1134F10386979696422002308F016FFD2B21F258C
S1134F207B191C78100004F0A1F803001A00FB6838
S1134F301B195A71386979696422002308F004FF47
S1134F4002000B003A617B617B191A787B190132EC
S1134F501A701F257B191B78052BD9D946F26033AB
S1134F60C2F200035A7A9C7A24022243DC7A240493
S1134F7022431C7B2406224310005A7B9C7B240280
S1134F802243DC7B240422431B7C1B0613431900AD
S1134F90386179617B1900221A7020E038697969D7
S1134FA06422002308F0D0FED2B21F257B191C789E
S1134FB0100004F05BF803001A00FB681B191A7355
S1134FC0386979696422002308F0BEFE02000B00F0
S1134FD03A617B617B191A787B1901321A701F229E
S1134FE0BB181B78032BD9D9BB1800221A7012E006
S1134FF01F203B181A7844F64453C2F20003995C0C
S11350001E22BB18BA1812788A181A703B181A781C
S11350103B1801321A701F23FB181B781B2BE7D98E
S1135020FB681E22BA1812781A77FB6816225A7780
S113503044F64453C2F200031E21180003F0E8FFB3
S1135040C046BD4608B0B0BDB0B586B000AF1623AB
S1135050FB1800221A7044F64453C2F200037B602A
S113506047F2E853C2F2000341F288321A607A68C8
S11350704EF6E053C0F200031000190004231A0096
S113508009F07EF87B6868221A717B686822DA72FC
S11350907B68DF221A747B6800225A747B680722BB
S11350A09A7441F60063C0F200031B68DAB27B68AD
S11350B05A757B6800225A767B6801229A757B6850
S11350C013331A7800210A401A705A7800210A40D2
S11350D05A707B6817331A7800210A40111C012288
S11350E00A431A705A7800210A405A7046F2603313
S11350F0C2F200035A789C7824022243DC78240408
S113510022431C792406224310005A799C792402F4
S11351102243DC79240422431B7A1B06134319001F
S1135120B860F9601723FB1800221A7020E0B868F1
S1135130F9686422002308F007FED2B217257B1910
S11351401C78100003F092FF03001A007B681B19FF
S11351505A71B868F9686422002308F0F5FD02006A
S11351600B00BA60FB607B191A787B1901321A7044
S113517017257B191B78052BD9D946F26033C2F267
S113518000035A7A9C7A24022243DC7A24042243C0
S11351901C7B2406224310005A7B9C7B240222435E
S11351A0DC7B240422431B7C1B0613431900B860D8
S11351B0F9607B1900221A7020E0B868F96864224B
S11351C0002308F0C1FDD2B217257B191C7810000A
S11351D003F04CFF03001A007B681B191A73B868AC
S11351E0F9686422002308F0AFFD02000B00BA60E6
S11351F0FB607B191A787B1901321A701722BB18CD
S11352001B78032BD9D9BB1800221A7012E017207F
S11352103B181A7844F64453C2F20003995C1622F0
S1135220BB18BA1812788A181A703B181A783B18E7
S113523001321A701723FB181B78192BE7D97B68E6
S11352401622BA1812789A767B681622DA7644F611
S11352504453C2F200031C21180003F0D9FEC046D7
S1135260BD4606B0B0BD80B584B000AF78607B6841
S1135270BB600F23FB1800221A7022E0BB681A7C63
S11352800F203B181B7859004EF6B053C0F20003B0
S11352905B5C9A420FD1BB685A7C3B181B785B005D
S11352A0591C4EF6B053C0F200035B5C9A4202D123
S11352B03B181B780BE00F217B181A787B180132FE
S11352C01A700F23FB181B78162BD7D9FF2318004D
S11352D0BD4604B080BDF0B587B000AF7860002251
S11352E00023BA60FB601723FB1800221A7023E026
S11352F064220023B868F96808F04AFD02000B0034
S1135300BA60FB601726BB191B780322D31A1A0054
S11353107B689B181B78180003F0DEFE03001C005A
S11353200025BA68FB6812196B41BA60FB60BB19AF
S11353301A78BB1901321A701723FB181B78032B38
S1135340D6D9BB68180003F0C6FA46F6A603C2F223
S1135350000301221A70C046BD4607B0F0BD90B5E7
S11353608DB000AF78607B681B78212B68D97B688F
S11353709B78312B64D87B685B78122B60D87B6870
S1135380DB78242B5CD87B681B79602B58D87B682E
S11353905B79602B54D87B681B78180003F09CFE63
S11353A003001A000C243B195A617B689B7818008F
S11353B003F092FE03001A003B19DA607B685B7805
S11353C0180003F089FE03001A003B191A617B6878
S11353D0DB78180003F080FE03001A003B199A6082
S11353E07B681B79180003F077FE03001A003B1951
S11353F05A607B685B79180003F06EFE03001A00A4
S11354003B191A6047F26463C2F20003180004F007
S11354106CFD4FF29812C0F2000247F26463C2F2CC
S113542000031100180004F017FD3A1947F26463F1
S1135430C2F200031100180004F0AEFD03F0A9F954
S1135440C046BD460DB090BDF0B587B000AF7860E2
S1135450002200233A617B610F23FB1800221A709B
S113546023E0642200233869796908F091FC020082
S11354700B003A617B610F26BB191B780522D31AF6
S11354801A007B689B181B78180003F025FE0300A4
S11354901C0000253A697B6912196B413A617B61F2
S11354A0BB191A78BB1901321A700F23FB181B7829
S11354B0052BD6D946F26033C2F200035A789C78A1
S11354C024022243DC78240422431C792406224348
S11354D010005A799C7924022243DC792404224363
S11354E01B7A1B06134319003B69834203D17B6972
S11354F08B4200D15AE046F26033C2F2000301331A
S11355001022BA1810781A7800210A40111C021CC3
S11355100A431A701122BA1810785A7800210A40E6
S1135520111C021C0A435A701222BA1810789A7875
S113553000210A40111C021C0A439A701322BA1853
S11355401078DA7800210A40111C021C0A43DA7030
S11355501422BA1810781A7900210A40111C021C6E
S11355600A431A711522BA1810785A7900210A4090
S1135570111C021C0A435A711622BA1810789A791F
S113558000210A40111C021C0A439A711722BA18FE
S11355901078DA7900210A40111C021C0A43DA71DE
S11355A046F6A503C2F2000301221A70C046BD46A6
S11355B007B0F0BD80B582B000AF0200FB1D1A70C9
S11355C0FB1D1B78180003F087FD0300190046F249
S11355D06033C2F200035822995446F6A503C2F27E
S11355E0000301221A70C046BD4602B080BDFFFF11
S11355F0B0B584B000AF7860144BBB600F23FB18C8
S113560000221A7013E00F257B191B787A68D318CF
S113561019787B191B78BA68D418080003F05CFD6C
S1135620030023707B191A787B1901321A700F2337
S1135630FB181B78022BE6D946F6A503C2F2000339
S113564001221A70C046BD4604B0B0BDB563002047
S113565080B584B000AF0200BB1D1A807B1D0A1CFC
S11356601A700F23FB1800221A7023E0BB1D1B883D
S11356701A127B1D1B7853408022134053B1BB1D6B
S11356801B885B001BB243F6655253401AB2BB1D24
S11356901A8004E0BA1DBB1D1B88DB1813807A1D19
S11356A07B1D1B78DB1813700F217B181A787B186D
S11356B001321A700F23FB181B78072BD6D9BB1D98
S11356C01B881800BD4604B080BDB0B584B000AFDF
S11356D078600A00BB1C1A800C23FB1800221A8075
S11356E00E23FB1800221A8014E00E257B191B8858
S11356F07A68D3181A780C23FC18FB181B8811003D
S11357001800FFF7A5FF030023807B191A887B1973
S113571001321A800E23FA18BB1C12881B889A4285
S1135720E3D30C23FB181B881800BD4604B0B0BD9E
S113573080B500AFBFF34F8FC0464EF60053CEF294
S113574000030422C0F2FA52DA60BFF34F8FC0465E
S1135750C046FDE790B583B000AF44F66823C2F2BB
S113576000031B785BB240F2004CC0F2100C63449F
S11357709B021A0046F26033C2F2000318001100C3
S113578040F203131A0008F0FBFCBC1D46F2603320
S1135790C2F2000340F201111800FFF796FF030064
S11357A0238046F26033C2F2000340F201129A5C95
S11357B040F202115B5C1B0213439BB2BA1D1288B8
S11357C09A4201D000233DE046F26033C2F2000366
S11357D05A7A9C7A24022243DC7A240422431C7BD6
S11357E02406224310005A7B9C7B24022243DC7B48
S11357F0240422431B7C1B061343190003000B43A0
S1135800EBB146F26033C2F200035A7A9C7A240266
S11358102243DC7A240422431C7B24062243100006
S11358205A7B9C7B24022243DC7B240422431B7C82
S11358301B0613431900431C03D14B1C01D1002345
S113584000E001231800BD4603B090BD80B582B0CE
S113585000AF00237B604FF25812C0F2000247F2FF
S11358602463C2F200031100180006F0FEFB0300DB
S11358707B607B681800BD4602B080BD80B500AF78
S11358800023C4F210031A6846F6C823C2F20003C8
S11358901A6046F6C823C2F200031B68592B18D1BC
S11358A046F6C823C2F2000300221A6046F6C82353
S11358B0C2F20003180000F010F84EF63061C0F296
S11358C0000147F2D063C2F200031422180003F06F
S11358D097FEC0461800BD4680BD80B584B000AFB9
S11358E078600B23FB1800221A7045F25523C2F28C
S11358F0000300221A700023C4F2100347F224604C
S1135900C2F200000122190006F017FC0300FB603C
S1135910FB680BB1FB6878E04FF25813C0F2000348
S11359201B785BB1C04645F25523C2F200031B78D5
S1135930DBB201225340DBB2002BF4D145F25523F4
S1135940C2F200031B78DBB2002B5ED045F2532376
S1135950C2F2000300221A7045F25423C2F200037B
S113596000221A700B23FB180021C4F2100147F225
S11359702460C2F20000042206F01CFC0300FB6059
S1135980FB680BB1FB6840E00B22BB181B788BB1A2
S1135990BB181B78012B01D1192336E00B23FB180C
S11359A01B78022B06D100F063FD0300012B01D10B
S11359B019232AE045F25623C2F2000300221A708A
S11359C079680022C4F2100247F22460C2F2000097
S11359D0042306F086FB0300FB60FB680BB1FB6845
S11359E013E04FF25813C0F200031B785BB1C046BA
S11359F045F25623C2F200031B78DBB20122534066
S1135A00DBB2002BF4D1FB68FFE71800BD4604B0FD
S1135A1080BDF0B597B000AF0200FB1D1A70BB1D2E
S1135A200A1C1A703323FB1800221A70BB1D1B7842
S1135A308BBB5323FB1801221A7046F26033C2F267
S1135A40000340F201111800FFF73FFE03001900A4
S1135A5046F26033C2F2000340F20112FF20084014
S1135A600500985C00242040041C281C2043985402
S1135A70090A88B29B185A7800210A40111C021C9A
S1135A800A435A7040F203137B6546F26033C2F254
S1135A900003FB6407E25323FB1802221A7046F248
S1135AA0A043C2F20003FB6446F26033C2F2000377
S1135AB05822995C46F26033C2F200039B229A5C3E
S1135AC09C201B5C1B0213431B041B141BB21C00F5
S1135AD0080003F0CBFA0300190046F2A042C2F218
S1135AE0000223005B011B195B00D31803330A1C5B
S1135AF01A7046F26033C2F200035B229B56DBB29B
S1135B00180003F0B3FA0300180046F26033C2F23F
S1135B1000039B229A5C9C215B5C1B0213431B04C5
S1135B201B141BB2190040B246F2A042C2F200029A
S1135B300B005B015B185B00D3180233021C1A7064
S1135B4046F26033C2F200035A229B56DBB21800BD
S1135B5003F08CFA0300180046F26033C2F200032B
S1135B609B229A5C9C215B5C1B0213431B041B1449
S1135B701BB2190040B246F2A042C2F200020B006E
S1135B805B015B185B00D3180133021C1A7046F2E8
S1135B906033C2F2000359229B56DBB2180003F0B3
S1135BA065FA0300180046F26033C2F200039B2238
S1135BB09A5C9C215B5C1B0213431B041B141BB2E9
S1135BC0190040B246F2A042C2F200020B005B018F
S1135BD05B185B00011C99544B23FB1800221A70BC
S1135BE067E046F26033C2F200039B229A5C9C2178
S1135BF05B5C1B0213431B041B141BB219004B20D8
S1135C003B181A780B005B015B189B1804335A008D
S1135C1046F2A043C2F20003D318BB633B181A78C0
S1135C204824391946F26033C2F20003303252007C
S1135C30981840789B189B781B0203430B803B19F0
S1135C401B8842F20F72934202D93B1900221A8038
S1135C504723FB1800221A7020E048257B191B8873
S1135C606422B3FBF2F264214A439B1A9BB2D9B279
S1135C704726BB191B78BA6BD418080003F0F6F951
S1135C800300237079197B191B886422B3FBF2F398
S1135C900B80BB191A78BB1901321A704723FB1801
S1135CA01B78012BD9D94B217B181A787B18013228
S1135CB01A704B203B181B78172B92D946F260338D
S1135CC0C2F200039D229A5C9E21595C09020A4398
S1135CD09F21595C09040A43A0215B5C1B06134302
S1135CE03B6446F26033C2F200039B229A5C9C211F
S1135CF05B5C1B0213431B041B141BB21A0013002E
S1135D005B019B185B0046F2A042C2F200029B18A2
S1135D100433BB633B1800221A701CE03B6CDBB2FB
S1135D206422B3FBF2F264214A439B1AD9B24B2595
S1135D307B191B78BA6BD418080003F097F9030099
S1135D4023703B6C6422B3FBF2F33B647B191A7837
S1135D507B1901321A704B23FB181B78032BDDD9F6
S1135D6044F64053C2F200031B78180003F07EF996
S1135D7003001C0046F26033C2F200039B229A5CCB
S1135D809C215B5C1B0213431B041B141BB21800F5
S1135D9064B246F2A042C2F20002402103005B0159
S1135DA01B185B00D3185B18221C1A7044F640536E
S1135DB0C2F200035B78180003F058F903001C00DA
S1135DC046F26033C2F200039B229A5C9C215B5C26
S1135DD01B0213431B041B141BB2180064B246F2CB
S1135DE0A042C2F20002412103005B011B185B00C8
S1135DF0D3185B18221C1A7046F26033C2F20003F7
S1135E009B229A5C9C215B5C1B0213431B041B14A6
S1135E101BB2190046F2A042C2F200020B005B0161
S1135E205B185B00D31838331A7900210A401A71C1
S1135E305A7900210A405A719A7900210A409A71CC
S1135E40DA7900210A40DA7146F26033C2F20003C3
S1135E509B229A5C9C215B5C1B0213431B041B1456
S1135E601BB2190046F2A042C2F200020B005B0111
S1135E705B185B00D31838331A7800210A401A7073
S1135E805A7800210A405A709A7800210A409A7080
S1135E90DA7800210A40DA7040F2DE337B6502E0F2
S1135EA07B6D01337B657B6D03221340002BF7D19F
S1135EB03E23FB1800221A8011E03E203B181B8869
S1135EC0FA6CD3183A181288197845F65823C2F296
S1135ED0000399543B181A883B1801321A803E2358
S1135EE0FB181B887A6D9A42E7D845F25323C2F215
S1135EF0000300221A7045F25423C2F20003002268
S1135F001A705323FB181B7840F2004CC0F2100C9B
S1135F10634499023323FB187A6D47F22460C2F27A
S1135F20000006F047F903007B637B6B0BB17B6BCE
S1135F30E9E03322BB181B784BB1BB181B78012B4B
S1135F4005D0BB181B78022B01D100F091FA45F261
S1135F505523C2F2000300221A705323FB181B7846
S1135F6040F2004CC0F2100C6344990247F22463DF
S1135F70C2F200030122180006F0DFF803007B637D
S1135F807B6B0BB17B6BBEE04FF25813C0F2000386
S1135F901B785BB1C04645F25523C2F200031B785F
S1135FA0DBB201225340DBB2002BF4D145F255237E
S1135FB0C2F200031B78DBB2002B39D045F2532325
S1135FC0C2F2000300221A7045F25423C2F2000305
S1135FD000221A705323FB181B7840F2004CC0F2C5
S1135FE0100C634499023323FB187A6D47F2246042
S1135FF0C2F2000006F0DEF803007B637B6B0BB19A
S11360007B6B80E03322BB181B788BB1BB181B78E9
S1136010012B01D1192376E03323FB181B78022BC3
S113602006D100F025FA0300012B01D119236AE0FF
S113603053243B191B7840F2004CC0F2100C63440B
S11360409B0219007A6D45F25823C2F2000318002E
S113605008F096F845F25623C2F2000300221A70A3
S113606045F65821C2F200013B191B7840F2004C5E
S1136070C0F2100C63449A027B6D47F22460C2F2B2
S1136080000006F02EF803007B637B6B0BB17B6B87
S113609039E04FF25813C0F200031B785BB1C046DD
S11360A045F25623C2F200031B78DBB201225340AF
S11360B0DBB2002BF4D15323FB181B7840F2004CC5
S11360C0C0F2100C63449B0219007A6D45F2582308
S11360D0C2F20003180008F053F87A6D45F658210F
S11360E0C2F2000145F25823C2F20003180008F07E
S11360F039F8030023B9FB1D1B781BB1FFF718FB0C
S1136100CA2300E07B6B1800BD4617B0F0BD80B514
S113611086B000AF786039601523FB1802221A702C
S113612000233B613B68FB601623FB1800221A80A6
S113613027E01623FB181A8813005B019B185B00E9
S11361401A001523FB181B789B02D31840F2000C8D
S1136150C4F2100C634419003B684222180008F092
S11361600FF8FB6879680322180007F0FBFF0300AF
S11361700BB93B690BE016217B181A887B18013296
S11361801A801623FB181B880E2BD2D90323180060
S1136190BD4606B080BD80B584B000AF0200396052
S11361A0BB1D1A800D23FB1802221A700023BB604A
S11361B046F26033C2F200039B229A5C9C215B5C32
S11361C01B0213431B041B141BB21A00BB1D1B88A8
S11361D09A4214DB46F26033C2F200039B229A5CBB
S11361E09C215B5C1B0213431B041B141BB299B25E
S11361F00E23FB18BA1D12888A1A1A8015E046F27B
S11362006033C2F200039B229A5C9C215B5C1B02FC
S113621013431B041B141BB29AB2BB1D1B88D31A55
S11362209AB20E23FB180F321A800E23FB181A8819
S113623013005B019B185B001A000D23FB181B78ED
S11362409B02D31840F2000CC4F2100C63441900F2
S11362503B684222180007F093FF3B681B78FF2B32
S113626001D1032300E0BB681800BD4604B080BD23
S113627080B582B000AFFB1D02221A7000233B6080
S1136280FB1D1B7840F2004CC0F2100C63449B02CF
S1136290190046F2A043C2F2000340F2DE321800B5
S11362A007F06EFF3B681800BD4602B080BD80B5A4
S11362B084B000AF39601100FB1D021C1A703B1D35
S11362C00A1C1A800023FB6004E03B1D1A883B1D56
S11362D001321A803B1D1B88032213409BB2002B02
S11362E0F3D147F22463C2F20003180005F09FFFC4
S11362F00300FB600B203B1800221A70FB1D1B7867
S1136300D9023B1D1A883B1847F22460C2F20000F0
S113631005F050FF0300FB60FB680BB1FB68A3E0D2
S113632045F25523C2F2000300221A700B23FB1816
S11363301B78012B16D1FB1D1B78D90247F224636D
S1136340C2F200030122180005F0F7FE0300FB600F
S1136350FB680BB1FB6887E045F25523C2F20003EA
S113636001221A7045F25523C2F200031B78DBB2F6
S1136370E3B1FB1D1B78D9023B1D1A880B23FB18C4
S113638047F22460C2F2000005F014FF0300FB6032
S1136390FB680BB1FB6867E00B22BB181B782BB1C1
S11363A0BB181B78012B01D119235DE03968FB1D53
S11363B01B78DA023B1D1B8847F22460C2F20000FE
S11363C005F08FFE0300FB60FB680BB1FB684BE03C
S11363D0FB1D1B78DB0219003B1D1A8845F258236C
S11363E0C2F20003180007F0CBFE3B1D1A8839687F
S11363F045F25823C2F20003180007F0B3FE03006D
S11364000BB1CA2330E0FB680BB1FB682CE0FB1D29
S11364101B78D90247F22463C2F200030122180058
S113642005F08BFE0300FB60FB680BB1FB681BE00F
S11364303968FB1D1B78DA023B1D1B8847F2246078
S1136440C2F2000005F04DFE0300FB60FB680BB1D7
S1136450FB6809E047F22463C2F20003180005F068
S1136460E6FE0300FB60FB681800BD4604B080BD77
S113647080B500AFC04645F25323C2F200031B7837
S1136480DBB201225340DBB253B145F25423C2F2D2
S113649000031B78DBB201225340DBB2002BEAD1AC
S11364A045F25323C2F200031B78DBB20BB1012384
S11364B000E000231800BD4680BD80B582B000AF67
S11364C078607B681B78032B07D022DC022B0BD06F
S11364D01FDC83B1012B15D01BE045F25323C2F21C
S11364E0000301221A7015E045F25423C2F200039E
S11364F001221A700EE045F25523C2F20003012274
S11365001A7007E045F25623C2F2000301221A7002
S113651000E0C046C046BD4602B080BD80B500AFB5
S113652044F66923C2F200031B781800BD4680BDFF
S113653080B500AF44F66923C2F2000302221A7048
S1136540C046BD4680BD80B500AF44F66923C2F2A3
S1136550000300221A7047F2E053C2F20003002243
S11365601A6046F25923C2F2000300221A7047F25D
S1136570EC53C2F2000300221A70C046BD4680BD2F
S113658080B500AF46F25923C2F2000300221A700C
S113659044F66A23C2F200030A221A8047F2E05347
S11365A0C2F20003C8221A6047F2EC53C2F200039D
S11365B000221A70C046BD4680BDFFFF80B59EB064
S11365C000AFF860B960FB1D1A704EF66873C0F234
S11365D00003FA681900100007F018FE03007B6737
S11365E07B6F002B49D046F25823C2F200030122EC
S11365F01A7000F0D4FEBB689AB27B6F11001800C9
S1136600FBF72AFC03005BB300210020FFF701FA2B
S113661040F2E83140F2F41007F070F846F26032CC
S1136620C2F2000240F20043C4F210031000190049
S113663040F203131A0007F0A3FDFB6801211800C0
S113664000F0A0FF46F25923C2F200031B78062B88
S113665020D144F66A23C2F2000301221A8019E011
S11366604EF6E471C0F2000147F2D063C2F20003B7
S11366700F22180002F0C4FF0CE04EF6F473C0F2CF
S11366800003FA681900100007F0C0FD03000BB105
S113669000F085FE46F25923C2F200031B780B2B4F
S11366A001D900F0C9FB9A00C24BD3181B689F465E
S11366B0FB1D1B78002B01D000F0A7FB44F66923D7
S11366C0C2F200031B78002B01D100F09EFB44F6BC
S11366D06923C2F200031B78013BDAB244F6692352
S11366E0C2F200031A7000F079FC46F25923C2F298
S11366F0000301221A7047F2E053C2F20003C822D9
S11367001A6044F66A23C2F200030A221A8000F0D7
S11367107CFBFB1D1B78CBB944F66A23C2F2000351
S11367201B88013B9AB244F66A23C2F200031A8022
S113673044F66A23C2F200031B881BB900F093FEDF
S113674000F065FB00F08EFD00F061FBFB1D1B7883
S1136750012B00D05BE3BB689AB2FB681100180000
S113676000F0F1FB030073B144F66A23C2F20003A4
S11367700A221A8046F25923C2F2000302221A7036
S113678000F0F0FC43E346F25C33C2F20003002263
S11367901A703CE3FB1D1B78BBB944F66A23C2F2B2
S11367A000031B88013B9AB244F66A23C2F2000339
S11367B01A8044F66A23C2F200031B8813B900F05E
S11367C052FE26E300F0CEFC23E3FB1D1B78012BD5
S11367D000D01EE3BB689AB2FB681100180000F0F9
S11367E099FB0300002B00D113E344F66A23C2F2A1
S11367F000030A221A8046F25923C2F2000303223C
S11368001A7046F25C33C2F2000300221A7046F298
S11368105C33C2F200031B78180000F051FEF8E26A
S1136820FB1D1B784BBB44F66A23C2F200031B8892
S1136830013B9AB244F66A23C2F200031A8044F67A
S11368406A23C2F200031B8813B900F00CFE0DE0AA
S113685046F25C33C2F2000300221A7046F25C3343
S1136860C2F200031B78180000F02AFE47F2E0533E
S1136870C2F20003C8221A60CDE2FB1D1B78012B73
S113688000D0C8E24EF61073C0F20003FA68190093
S1136890100007F0BBFC03007B677B6F002B00D16B
S11368A0B9E246F25C33C2F200031B78042B00D930
S11368B0B1E246F25C33C2F200031B78180000F028
S11368C0FFFD46F25C33C2F200031B780133DAB2F7
S11368D046F25C33C2F200031A7046F25C33C2F231
S11368E000031B78052B00D095E244F66A23C2F21C
S11368F000030A221A8046F25923C2F2000304223A
S11369001A7000F09DFA86E2FB1D1B78BBB944F6B1
S11369106A23C2F200031B88013B9AB244F66A233D
S1136920C2F200031A8044F66A23C2F200031B88F1
S113693013B900F098FD70E200F082FA6DE2FB1DDD
S11369401B78012B00D068E2BB689AB2FB68110087
S1136950180000F094FA0300002B00D15DE244F625
S11369606A23C2F200030A221A8046F25923C2F2B1
S1136970000305221A7000F094FC4EE2FB1D1B7804
S1136980D3B944F66A23C2F200031B88013B9AB2CE
S113699044F66A23C2F200031A8044F66A23C2F260
S11369A000031B8813B900F05EFD38E200F079FCA7
S11369B035E2C04650F00000FB1D1B78012B00D0CF
S11369C02DE2BB689AB2FB681100180000F0D4FAFB
S11369D00300002B00D122E246F28C43C2F20003F2
S11369E01B782BB944F66E23C2F200031B7853B311
S11369F046F28C43C2F2000300221A7044F66E235E
S1136A00C2F2000300221A7047F2E053C2F20003FC
S1136A1064221A6046F25923C2F2000306221A7055
S1136A204EF6FC71C0F2000147F2D063C2F20003DB
S1136A302C22180002F0E4FD44F66A23C2F200039B
S1136A4004221A80EBE144F66A23C2F200030A220C
S1136A501A8046F25923C2F2000307221A7000F08A
S1136A6040FCDCE1FB1D1B788BBB44F66A23C2F2BD
S1136A7000031B88013B9AB244F66A23C2F2000366
S1136A801A8044F66A23C2F200031B88ABB944F6A9
S1136A906A23C2F200030A221A8047F2E053C2F2C8
S1136AA0000340F2B0421A6046F25923C2F20003D6
S1136AB007221A7000F015FCB3E100F053FC47F212
S1136AC0E053C2F2000340F2E8321A60A9E146F250
S1136AD05823C2F200031B78002B00D1A1E146F237
S1136AE05823C2F2000300221A7044F66A23C2F249
S1136AF000030A221A8047F2E053C2F2000340F274
S1136B002C121A6046F25923C2F2000307221A70AB
S1136B1000F0E7FB85E1FB1D1B78BBB944F66A2353
S1136B20C2F200031B88013B9AB244F66A23C2F204
S1136B3000031A8044F66A23C2F200031B8813B9C7
S1136B4000F091FC6FE100F0CCFB6CE1FB1D1B78C5
S1136B50012B00D067E1BB689AB2FB6811001800F2
S1136B6000F068FC030073B144F66A23C2F2000328
S1136B700A221A8046F25923C2F2000309221A702B
S1136B8000F04CFA4FE144F66A23C2F200030A22F1
S1136B901A8046F25923C2F2000308221A7000F048
S1136BA0C0FB40E1FB1D1B78BBB944F66A23C2F26B
S1136BB000031B88013B9AB244F66A23C2F2000325
S1136BC01A8044F66A23C2F200031B8813B900F04A
S1136BD04AFC2AE100F0A5FB27E1FB1D1B78012BF1
S1136BE000D022E1BB689AB2FB681100180000F0E3
S1136BF008FC0300002B00D117E144F66A23C2F21B
S1136C0000030A221A8046F25923C2F20003092221
S1136C101A7000F003FA08E1FB1D1B78FBB944F677
S1136C206A23C2F200031B88013B9AB244F66A232A
S1136C30C2F200031A8044F66A23C2F200031B88DE
S1136C4053B900F06DFA40F2E83140F2E83006F052
S1136C5055FD00F008FCEAE000F0E0F9E7E0FB1D78
S1136C601B78012B00D0E2E0BB689AB2FB681100EC
S1136C70180000F09AF90300ABB144F66A23C2F29B
S1136C8000030A221A8046F25923C2F200030A22A0
S1136C901A70FDF795FD47F2E053C2F2000340F28B
S1136CA0FE121A60C3E0BB689AB2FB6811001800B8
S1136CB000F017F90300002B00D1B8E047F2E053CD
S1136CC0C2F2000340F2FE121A6044F66A23C2F2D2
S1136CD0000301221A80AAE0FB1D1B78F3B944F6D5
S1136CE06A23C2F200031B88013B9AB244F66A236A
S1136CF0C2F200031A8044F66A23C2F200031B881E
S1136D0013B900F0B0FB94E0FDF75AFD47F2E053ED
S1136D10C2F2000340F2FE121A608AE0FB1D1B78E7
S1136D20012B00D085E0FB681800FCF7EDFA0300A6
S1136D30E3B144F66A23C2F200030A221A8046F23F
S1136D405923C2F200030B221A7047F2EC53C2F229
S1136D50000301221A70012140F60F1001F07AFBA2
S1136D60012140F60E1001F075FB62E0BB689AB297
S1136D70FB681100180000F09BF80300002B58D0AA
S1136D8047F2EC53C2F2000300221A7000F06BFBCE
S1136D904FE0FB1D1B78ABB944F66A23C2F2000333
S1136DA01B88013B9AB244F66A23C2F200031A809C
S1136DB044F66A23C2F200031B88002B3BD100F087
S1136DC052FB38E0FB1D1B78012B34D1BB689AB20F
S1136DD0FB681100180000F06BF803000BB100F021
S1136DE042FBFB681800FCF78FFA03001BBB44F658
S1136DF06A23C2F200030A221A8047F2E053C2F265
S1136E00000340F24C421A6015E0C04614E0C0464C
S1136E1012E0C04610E0C0460EE0C0460CE0C0469A
S1136E200AE0C04608E0C04606E0C04604E0C046AA
S1136E3002E0C04600E0C046C046BD461EB080BD6C
S1136E40B0B500AF46F25C22C2F200024EF65063C7
S1136E50C0F2000313CB13C21B78137046F25C23F9
S1136E60C2F200030D21180002F0D2F847F2E053F9
S1136E70C2F20003C8221A60C046BD46B0BD80B548
S1136E8082B000AF78600A00BB1C1A804EF66063C3
S1136E90C0F200037A681900100007F0B7F9030084
S1136EA00BB1012300E000231800BD4602B080BDF1
S1136EB080B582B000AF78600A00BB1C1A804EF621
S1136EC03C73C0F200037A681900100007F09EF9C1
S1136ED003000BB1012300E000231800BD4602B0FB
S1136EE080BD80B582B000AF78600A00BB1C1A80F8
S1136EF04EF64C73C0F200037A681900100007F0D4
S1136F0085F903000BB1012300E000231800BD46FE
S1136F1002B080BD80B582B000AF78600A00BB1CAF
S1136F201A804EF61073C0F200037A68190010003C
S1136F3007F06CF903000BB1012300E000231800F3
S1136F40BD4602B080BD80B582B000AF78600A0053
S1136F50BB1C1A804EF61073C0F200037A68190045
S1136F60100007F053F903000BB1012300E00023E4
S1136F701800BD4602B080BD80B582B000AF786015
S1136F800A00BB1C1A804EF67863C0F200037A68CC
S1136F901900100007F03AF903000BB1012300E0D7
S1136FA000231800BD4602B080BD80B582B000AF9A
S1136FB078600A00BB1C1A804EF6F063C0F200032E
S1136FC07A681900100007F021F903000BB10123BE
S1136FD000E000231800BD4602B080BD80B500AFBC
S1136FE046F25C22C2F200024EF61873C0F20003AD
S1136FF0198811809B78937046F25C23C2F20003D7
S11370000321180002F004F840F2E83140F2D07095
S113701006F074FBC046BD4680BDFFFF80B500AFDF
S113702046F25C23C2F2000300221A7046F25C238B
S1137030C2F20003180007F0E2F803001A0046F257
S11370405C23C2F20003D2184EF6D463C0F20003EC
S11370501000190013231A0007F092F82E4A46F282
S11370605C23C2F200031100180007F0BBF846F2DB
S11370705C23C2F20003180007F0C1F803001A00F1
S113708046F25C23C2F20003D2184FF22803C0F286
S113709000031000190002231A0007F071F81F4AB8
S11370A046F25C23C2F200031100180007F09AF8BC
S11370B046F25C23C2F20003180007F0A0F80300B4
S11370C01A0046F25C23C2F20003D2184EF6E863BB
S11370D0C0F200031000190007231A0007F050F84B
S11370E046F25C23C2F20003180007F088F803009C
S11370F09AB246F25C23C2F200031100180001F0B8
S113710087FF47F2E053C2F2000340F22C121A60E8
S1137110C046BD4680BDC04687630020AB630020E7
S1137120B0B500AF46F25C23C2F200034EF6FC6237
S1137130C0F2000213CA13C31168196012791A71DC
S113714046F25C23C2F200031021180001F060FF34
S113715047F2E053C2F20003C8221A60C046BD469B
S1137160B0BDFFFF80B500AF46F25C23C2F200035E
S113717000221A7046F25C23C2F20003180007F0E2
S11371803EF803001A0046F25C23C2F20003D21850
S11371904EF6B063C0F200031000190011231A0068
S11371A006F0EEFF2D4A46F25C23C2F20003110002
S11371B0180007F017F846F25C23C2F20003180027
S11371C007F01DF803001A0046F25C23C2F2000324
S11371D0D2184FF22803C0F2000310001900022352
S11371E01A0006F0CDFF1E4A46F25C23C2F20003E9
S11371F01100180006F0F6FF46F25C23C2F2000309
S1137200180006F0FCFF03001A0046F25C23C2F2E9
S11372100003D2184EF6C463C0F200031000190034
S11372200F231A0006F0ACFF46F25C23C2F20003FF
S1137230180006F0E4FF03009AB246F25C23C2F29F
S113724000031100180001F0E3FE47F2E053C2F21C
S11372500003C8221A60C046BD4680BD9763002063
S11372608763002080B500AF46F25C22C2F20002C0
S11372704EF64463C0F2000303CB03C21B781370C1
S113728046F25C23C2F200030821180001F0C0FE9C
S113729047F2E053C2F20003C8221A60C046BD465A
S11372A080BDB0B500AF46F25C22C2F200024EF6D9
S11372B06863C0F2000313CB13C21B88138046F229
S11372C05C23C2F200030D21180001F0A1FE47F275
S11372D0E053C2F2000340F22C121A60C046BD46CD
S11372E0B0BDB0B500AF46F25C22C2F200024EF669
S11372F02C73C0F2000313CB13C21B88138046F215
S11373005C23C2F200030D21180001F081FE47F254
S1137310E053C2F2000340F22C121A60C046BD468C
S1137320B0BDB0B500AF46F25C23C2F200034EF626
S11373301C72C0F2000213CA13C311881980927818
S11373409A7046F25C23C2F200030E21180001F089
S11373505FFE47F2E053C2F20003C8221A60C0463F
S1137360BD46B0BDB0B500AF46F25C23C2F2000327
S11373704EF68862C0F2000213CA13C303CA03C3E1
S11373801188198092789A7046F25C23C2F2000345
S11373901621180001F03CFEC046BD46B0BDB0B594
S11373A000AF46F25C22C2F200024EF6A063C0F2C5
S11373B0000313CB13C21B68136046F25C23C2F2B2
S11373C000030F21180001F023FEC046BD46B0BDE6
S11373D080B500AF46F25C22C2F200024EF6B873EA
S11373E0C0F2000303CB03C21B88138046F25C2364
S11373F0C2F200030921180001F00AFEC046BD468E
S113740080BD80B582B000AF78600A00BB1C1A80D2
S11374104EF61073C0F200037A681900100006F0EB
S1137420F5FE03000BB1012300E000231800BD4664
S113743002B080BD80B582B000AF78600A00BB1C8A
S11374401A804EF65873C0F200037A6819001000CF
S113745006F0DCFE03000BB1012300E0002318005A
S1137460BD4602B080BDB0B500AFFFF7B7FD46F230
S11374705C22C2F200024EF67073C0F2000313CB1A
S113748013C21B68136046F25C23C2F200030F218F
S1137490180001F0BDFD44F66A23C2F200030A227B
S11374A01A8046F25923C2F2000300221A7047F2EE
S11374B0E053C2F20003C8221A60C046BD46B0BD04
S11374C090B583B000AF0200FB1D1A70FB1D1B7842
S11374D0042B4BD89A002A4BD3181B689F4646F2BC
S11374E05C22C2F200024EF68073C0F2000313CB9A
S11374F013C21B88138046F25C23C2F200030D21E1
S1137500180001F085FD31E046F25C22C2F200026F
S11375104EF69073C0F2000313CB13C21B681360C2
S113752046F25C23C2F200030F21180001F070FD43
S11375301CE046F25C23C2F200034EF6A072C0F2D5
S1137540000213CA13C303CA03C3118819809278B3
S11375509A7046F25C23C2F200031621180001F06F
S113756057FD03E0FFF734FF00E0C04647F2E05365
S1137570C2F20003C8221A60C046BD4603B090BDE3
S113758080F0000080B588B000AF78600A00FB1C72
S11375901A701E23FB1800221A801C23FB180022D9
S11375A01A8046F25C23C2F2000300221A7046F2EB
S11375B05C23C2F20003180006F021FE03001A0047
S11375C046F25C23C2F20003D2184EF6D473C0F222
S11375D00003100019000B231A0006F0D1FD082344
S11375E0FB1814220021180006F0D3FD05E01E212B
S11375F07B181A887B1801321A801E217B181B887D
S11376007A68D3181B78222B07D17B181B88013387
S11376107A68D3181B782B2B04D01E23FB181B88E5
S1137620312BE4D91E217B181A887B1801321A8069
S1137630FB1C1B7883B37B181B88312B15D90023C3
S1137640DDE01E22BB181B88BA18591C11801A00D1
S11376507B689A181C217B181B887918581C088091
S1137660190012780823FB185A541E217B181B8812
S11376707A68D3181B78222B03D07B181B888B2B9A
S1137680DFD90823FA1846F25C23C2F20003110082
S1137690180006F0A7FD17E046F25C23C2F20003CF
S11376A0180006F0ACFD03001A0046F25C23C2F297
S11376B00003D2184EF6C473C0F200031000190080
S11376C00E231A0006F05CFD46F25C23C2F20003AE
S11376D0180006F094FD03001A0046F25C23C2F27F
S11376E00003D2184EF6E073C0F200031000190034
S11376F002231A0006F044FDFB1C1B78002B42D029
S113770046F25C23C2F20003180006F078FD030081
S11377101A0046F25C23C2F20003D2184FF22C0383
S1137720C0F200031000190004231A0006F028FD1B
S1137730354A46F25C23C2F200031100180006F039
S113774051FD46F25C23C2F20003180006F057FD17
S113775003001A0046F25C23C2F20003D2184FF26F
S11377603003C0F200031000190008231A0006F0C9
S113777007FD264A46F25C23C2F2000311001800FA
S113778006F030FD17E046F25C23C2F20003180055
S113779006F035FD03001A0046F25C23C2F2000332
S11377A0D2184FF23803C0F2000310001900162358
S11377B01A0006F0E5FC4EF6E272C0F2000246F250
S11377C05C23C2F200031100180006F00BFD46F220
S11377D05C23C2F20003180006F011FD03009AB204
S11377E046F25C23C2F200031100180001F010FC01
S11377F040F2E83140F2D07005F080FF0123180018
S1137800BD4608B080BDC04687630020AB6300203E
S113781090B585B000AF0200BB1D1A807B1D0A1C09
S11378201A7040F60003C4F20403BA1D1288120A47
S113783092B21000BA1D1288FF210A4001018A1871
S11378409200D358FB60FA6843F6FE73CFF6FE73DA
S11378501340FB607B1D1B78FA681343BB6040F642
S11378600003C4F20403BA1D1288120A92B214006F
S1137870BA1D1288FF210A40B9680420014320017F
S113788082189200D150C046BD4605B090BD80B567
S113789084B000AF0023FB60EFF310837B607B6850
S11378A0FB600123BB60BB6883F31088C04647F2CA
S11378B08473C2F200031B685BB940F60053C4F240
S11378C004030022DA7040F60053C4F20403402299
S11378D0DA7047F28473C2F200031B685A1C47F241
S11378E08473C2F200031A60FB683B603B6883F355
S11378F01088C046C046BD4604B080BD80B584B083
S113790000AF0023FB60EFF310837B607B68FB60B8
S11379100123BB60BB6883F31088C04647F28473BD
S1137920C2F200031B6853B147F28473C2F200032E
S11379301B685A1E47F28473C2F200031A6047F2AE
S11379408473C2F200031B685BB940F60053C4F2AF
S113795004030022DA7040F60053C4F204038022C8
S1137960DA70FB683B603B6883F31088C046C0460E
S1137970BD4604B080BDF0B593B002AF40F2E83329
S1137980190040F6B83005F0B9FE4FF2B812C0F253
S1137990000247F27C63C2F200031100180003F0F6
S11379A0E6F80300FB634FF24422C0F2000247F200
S11379B00073C2F200031100180004F00DF9030073
S11379C0FB6347F20073C2F20003180004F07FF96E
S11379D00300FB634FF2D012C0F2000247F290633F
S11379E0C2F200031100180004F0F6F80300FB6370
S11379F047F29063C2F20003180004F068F9030030
S1137A00FB634FF23812C0F2000247F20863C2F27D
S1137A1000031100180005F0CCF80300FB6347F2E3
